:020000040800F2
:1000000078060020CD3A0008992200089B220008BB
:100010009F220008A3220008A72200080000000079
:10002000000000000000000000000000AB220008FB
:10003000AD22000800000000AF2200082F230008B6
:10004000E73A0008E73A0008E73A0008E73A00080C
:10005000E73A0008E73A0008E73A0008E73A0008FC
:10006000E73A0008E73A00086D220008E73A00087E
:10007000E73A0008E73A0008E73A0008E73A0008DC
:10008000E73A0008E73A0008E73A0008E73A0008CC
:10009000E73A0008E73A0008E73A0008E73A0008BC
:1000A000E73A000801290008E73A0008E73A0008A3
:1000B000E73A0008E73A0008E73A0008E73A00089C
:1000C000E73A0008E73A0008E73A0008E73A00088C
:1000D000E73A0008E73A0008E73A0008E73A00087C
:1000E0007F220008E73A0008E73A0008E73A0008EC
:1000F000E73A0008E73A0008E73A0008E73A00085C
:10010000E73A0008E73A0008E73A0008E73A00084B
:10011000E73A0008E73A0008E73A0008E73A00083B
:10012000E73A0008E73A0008E73A0008E73A00082B
:10013000DFF80CD004F0DAF8004800471D22000870
:100140007806002031490143314A1160704770B58B
:10015000002100230F22C47804B32D4C246804F43A
:10016000E064C4F5E064210AC1F10403CA404478A4
:1001700004FA03F18478144021430901254C0678E0
:10018000A155047804F01F050124AC4005786D11D9
:10019000AD0005F1E025C5F8004109E0047804F060
:1001A0001F050124AC401C4D0678761145F8264009
:1001B00070BD1A4A0A400243154B1B1F1A60704754
:1001C00039B1134A121D12680243114B1B1D1A60EC
:1001D00006E00F4A121D126882430D4B1B1D1A6068
:1001E0007047042808D14FF0E021096941F004016B
:1001F0004FF0E022116107E04FF0E021096921F0A2
:1002000004014FF0E0221161704700000000FA0580
:100210000CED00E000E400E080E100E080FFFF1F63
:10022000002044490860091D0860091D0860091D77
:10023000086041483F4914310860704700213D493A
:100240008279002A3AD00A46126803689A430B461C
:100250001A600A1D126803689A430B1D1A6002791E
:1002600011440A6803681A430A60324A0832126865
:1002700003689A432F4B08331A601A1D12680368EB
:100280009A432C4B0C331A604279102A0ED11A1F54
:10029000126803681A43274B08331A601A1D126844
:1002A00003681A43234B0C331A600DE0214942794D
:1002B00011440A6803681A430A6005E00279114490
:1002C0000A6803689A430A6070470021016001715F
:1002D0000C21417100218171704716491031096864
:1002E0000143144A10321160704701460020114A40
:1002F000143212680A400AB1012000E00020704761
:100300000C49143108607047014600200022094B57
:100310001B6803EA0102074B14331B680B4013B13F
:100320000AB1012000E00020704702491431086042
:100330007047000000040140FFFF0F00014600204D
:10034000FE4A106800F03800084310607047FB490F
:10035000096821F00801F94A116011460968014352
:1003600011607047F549096821F01001F34A1160E6
:1003700011460968014311607047F148EF49486030
:10038000F04848607047EE48EC494860ED484860E6
:100390007047EA48006940F08000E849086170470A
:1003A000E648006940F08000E44908617047042095
:1003B000E249C96801F0010109B101200EE0DF49FD
:1003C000C96801F0040109B1022007E0DB49C968EE
:1003D00001F0100109B1032000E00420704700B5CE
:1003E00002460423FFF7E3FF034603E0FFF7DFFFC6
:1003F0000346521E012B01D1002AF7D102B9052371
:10040000184600BD30B5044604254FF43020FFF7F0
:10041000E6FF0546042D17D1C848006940F00200E8
:10042000C649086108464461006940F0400008611F
:100430004FF43020FFF7D3FF0546C048006941F66E
:10044000FD710840BD490861284630BD10B504243F
:100450004FF43020FFF7C3FF0446042C16D1B748F1
:10046000006940F00400B54908610846006940F0A1
:10047000400008614FF43020FFF7B1FF0446AF4859
:10048000006941F6FB710840AC490861204610BD87
:1004900000B502460423FFF78AFF034603E0FFF797
:1004A00086FF0346521E012B01D1002AF7D102B963
:1004B0000523184600BD10B504244FF43020FFF783
:1004C000E7FF0446042C16D19C48006940F0040064
:1004D0009A4908610846006940F0400008614FF4FD
:1004E0003020FFF7D5FF04469448006941F6FB71C0
:1004F000084092490861204610BD00208F49C96913
:1005000001F0020109B1012000E00020704730B580
:10051000A5250424FFF7F1FF00B100254FF430209A
:10052000FFF75DFF0446042C3AD185488349886073
:10053000844888600846006940F020000861084649
:10054000006940F0400008614FF43020FFF747FF9A
:100550000446042C1BD17948006941F6DF7108403C
:10056000764908610846006940F010000861764845
:100570000580E002FFF733FF0446052C10D06F48DA
:10058000006941F6EF7108406C49086108E0052CEC
:1005900006D06A48006941F6EF7108406749086172
:1005A000204630BD78B506460C4604250020009054
:1005B000E802FFF714FF0546042D24D15F480069C7
:1005C00040F001005D4908613480E802FFF707FF51
:1005D0000546042D10D1B01C0090200C0099088015
:1005E000E802FFF7FCFE05465448006941F6FE713B
:1005F00008405249086106E05048006941F6FE7122
:1006000008404E490861284678BD70B504460D463D
:100610000426F002FFF7E3FE0646042E11D14748F8
:10062000006940F00100454908612580F002FFF7AC
:10063000D6FE06464148006941F6FE7108403F4932
:100640000861304670BD70B505460E460424E002D0
:10065000FFF7C5FE0446042C17D139483749886096
:10066000384888600846006940F0100008612E8014
:10067000E002FFF7B4FE0446052C06D02F480069BF
:1006800041F6EF7108402D490861204670BD2DE903
:10069000F04304464FF6FF763746B046B146042590
:1006A000E443E6B2C4F30727C4F307484FEA1469EA
:1006B000E802FFF794FE0546042D49D120481F4962
:1006C0008860204888600846006940F01000086192
:1006D000FF2E06D01C4808300680E802FFF77FFE98
:1006E0000546042D08D1FF2F06D017480A30078091
:1006F000E802FFF774FE0546042D0AD1B8F1FF0F9A
:1007000007D011480C30A0F80080E802FFF767FE20
:100710000546042D0AD1B9F1FF0F07D00A480E3063
:10072000A0F80090E802FFF75AFE0546052D0FD00D
:100730000248006941F6EF71084007E000200240DE
:1007400023016745AB89EFCD00F8FF1F66490861BB
:100750002846BDE8F08330B5054604244FF4302028
:10076000FFF73DFE0446042C41D160485E49886095
:100770005F4888600846006940F02000086108462C
:10078000006940F0400008614FF43020FFF727FE79
:100790000446042C22D15448006941F6DF71084018
:1007A000514908610846006940F0100008611DB118
:1007B00000205049088002E0A5204E4908804FF4EF
:1007C0003020FFF70CFE0446052C10D04648006987
:1007D00041F6EF7108404449086108E0052C06D055
:1007E0004148006941F6DF7108403F4908612046F1
:1007F00030BDF0B505460E46174604243B483A493D
:1008000088603B488860E002FFF7E9FD0446042C5D
:1008100019D13548006940F010003349086147F0AC
:10082000F800304328433349891C0880E002FFF771
:10083000D6FD0446052C06D02B48006941F6EF7121
:100840000840294908612046F0BD2748C069800852
:1008500070472548006A704700202349096801F065
:10086000200109B1012000E00020704729B11E4A93
:10087000126902431C4B1A6104E01B4A126982434D
:10088000194B1A61704701460020012908D1164A08
:10089000D26902F001020AB1012008E0002006E05E
:1008A000114AD2680A400AB1012000E000207047D6
:1008B0000D49C860704704200B49C96801F0010167
:1008C00009B101200EE00849C96801F0040109B12D
:1008D000022007E00449C96801F0100109B10320B2
:1008E00000E004207047000000200240230167451B
:1008F000AB89EFCD00F8FF1F10B50446CC48844209
:1009000008D10121042000F02DFB0021042000F07B
:1009100029FB46E0C748844208D10121082000F0A5
:1009200021FB0021082000F01DFB3AE0C248844270
:1009300008D10121102000F015FB0021102000F04B
:1009400011FB2EE0BD48844208D10121202000F097
:1009500009FB0021202000F005FB22E0B84884427A
:1009600008D10121402000F0FDFA0021402000F0D4
:10097000F9FA16E0B348844208D10121802000F042
:10098000F1FA0021802000F0EDFA0AE0AE4884423E
:1009900007D10121801500F0E5FA0021A01500F033
:1009A000E1FA10BD10B50121084600F0DBFA002184
:1009B000012000F0D7FA10BD2DE9F04102460025D4
:1009C0000026002000230024002791F803C00CF02B
:1009D0000F0591F803C00CF0100CBCF1000F03D010
:1009E00091F802C04CEA050591F800C0BCF1000F77
:1009F00031D0146800202BE04FF0010C0CFA00F30A
:100A0000B1F800C00CEA03069E4220D183004FF0EB
:100A10000F0C0CFA03F7BC4305FA03FC4CEA040480
:100A200091F803C0BCF1280F06D14FF0010C0CFA6D
:100A300000FCC2F814C00AE091F803C0BCF1480FF2
:100A400005D14FF0010C0CFA00FCC2F810C0401C9C
:100A50000828D1D31460B1F800C0BCF1FF0F34DD19
:100A6000546800202EE000F1080C4FF0010808FA4D
:100A70000CF3B1F800C00CEA03069E4221D18300BA
:100A80004FF00F0C0CFA03F7BC4305FA03FC4CEAD9
:100A9000040491F803C0BCF1280F05D100F1080C43
:100AA00008FA0CF8C2F8148091F803C0BCF1480FA2
:100AB00007D100F1080C4FF0010808FA0CF8C2F851
:100AC0001080401C0828CED35460BDE8F0814FF65A
:100AD000FF710180022181700421C17070470246BC
:100AE000002093680B400BB1012000E0002070470C
:100AF0000146886880B2704702460020D3680B40E8
:100B00000BB1012000E0002070470146C86880B2A8
:100B1000704701617047416170470AB1016100E0AF
:100B200041617047C16070474FF480320A4382616F
:100B30008161826182698269704702460020434B6D
:100B400018684FF68073184040EA021008433F4B84
:100B5000186070473E49C8617047F0B50A460023E7
:100B600000240021002500F00046B6F1004F02D11C
:100B7000364EF16901E0354E7168C0F3034583B22A
:100B800000F44016B6F5401F08D121F070612F4ED9
:100B9000766826F070662D4F7E6012E000F48016B5
:100BA000B6F5801F06D1032606FA05F4A14341F0ED
:100BB000706106E0460D360103FA06F6B14341F0D6
:100BC000706122B1460D360103FA06F6314300F09A
:100BD0000046B6F1004F02D11C4EF16101E01B4E00
:100BE0007160F0BD30B500228B071C0F0F2303FA94
:100BF00004F2164B08338C1053F824309343134CF3
:100C000008348D1044F8253023468C1053F82430D6
:100C10008C07240F00FA04F423430C4C08348D1085
:100C200044F8253030BD0A49DC31086070470000C7
:100C300000080140000C0140001001400014014078
:100C400000180140001C014000200140000001404C
:100C500000002042DF48006840F00100DD490860E4
:100C600008464068DC490840DA49486008460068A0
:100C7000DA490840D74908600846006820F4802017
:100C800008600846406820F4FE0048604FF41F00EA
:100C900088607047CF49096821F48031CD4A1160DE
:100CA0001146096821F480211160B0F5803F03D01E
:100CB000B0F5802F0ED106E0C649096841F48031B5
:100CC000C44A116007E0C349096841F4A021C14A40
:100CD000116000E000BF00BF704710B50146002260
:100CE000002300204A11012A02D1BA4C236806E0F1
:100CF000022A02D1B74C236A01E0B64C636A01F0C4
:100D00001F02012494401C400CB1012000E000208F
:100D100010BD38B5002000900024002500BF312010
:100D2000FFF7DBFF05460098401C00900098B0F5E7
:100D3000A06F01D0002DF2D03120FFF7CEFF08B117
:100D4000012400E00024204638BD01460020A14ACD
:100D5000106820F0F80040EAC10010607047A04918
:100D600008607047024600209A4B586820F47C10B7
:100D700042EA01031843974B586070479849086648
:100D8000704701460020934A506820F00300084352
:100D9000506070478F48406800F00C007047014673
:100DA00000208C4A506820F0F000084350607047E3
:100DB00001460020874A506820F4E06008435060F4
:100DC000704701460020834A506820F4605040EA92
:100DD000C1005060704729B17E4A527A02437D4B70
:100DE0005A7204E07B4A527A82437A4B5A727047B5
:100DF0007B49D8310860704701460020754A506829
:100E000020F440400843506070470021714A20326E
:100E10001170704A82F82010012802D004280AD1EB
:100E200004E001216B4A2032117005E00521694A76
:100E30002032117000E000BF00BF704769490860B0
:100E400070476449096A0143624A11627047654903
:100E500044390860704730B5002100220024002387
:100E60005C4D6D6805F00C0121B1042905D00829FD
:100E700023D105E05C4D056022E05B4D05601FE07D
:100E8000544D6D6805F47012524D6D6805F4803450
:100E9000022505EB92421CB9544D554305600BE009
:100EA0004C4D6D6805F400351DB1504D554305603E
:100EB00002E04D4D5543056002E04B4D056000BF1B
:100EC00000BF444D6D6805F0F0010909484D6B5CA9
:100ED0000568DD4045603F4D6D6805F4E061090A35
:100EE000434D6B5C4568DD4085603A4D6D6805F4A7
:100EF0006051C90A3E4D6B5C4568DD40C560354DAB
:100F00006D6805F44041890B3A4D6B5CC568B5FBD3
:100F1000F3F5056130BD29B12E4A526902432D4BCC
:100F20005A6104E02B4A526982432A4B5A61704746
:100F300029B1284A92690243264B9A6104E0254A66
:100F400092698243234B9A61704729B1214AD26941
:100F50000243204BDA6104E01E4AD26982431D4BF2
:100F6000DA61704729B11B4AD2680243194BDA6033
:100F700004E0184AD2688243164BDA60704729B100
:100F8000144A12690243134B1A6104E0114A1269B0
:100F90008243104B1A61704712494039086070470C
:100FA0000F49C86470470B49C87170470948406AC7
:100FB00040F0807007494862704701460020054AAA
:100FC00092680A400AB1012000E000207047014900
:100FD00088727047001002400000FFF8FFFFF6FE25
:100FE000000042428004424200127A0000093D00A3
:100FF000000000201000002010B50446FE48844286
:1010000008D10121C014FFF7ADFF0021E014FFF764
:10101000A9FFC4E0B4F1804F08D101210846FFF7D1
:10102000AEFF00210120FFF7AAFFB8E0F348844299
:1010300008D101210220FFF7A2FF00210220FFF7C3
:101040009EFFACE0EE48844208D101210420FFF766
:1010500096FF00210420FFF792FFA0E0E9488442B8
:1010600008D101210820FFF78AFF00210820FFF79F
:1010700086FF94E0E448844208D101211020FFF764
:101080007EFF00211020FFF77AFF88E0DF488442CE
:1010900008D101212020FFF772FF00212020FFF757
:1010A0006EFF7CE0DA48844208D101214014FFF74A
:1010B00059FF00216014FFF755FF70E0D5488442C6
:1010C00009D10121C804FFF74DFF00214FF4002092
:1010D000FFF748FF63E0D048844209D101210805A9
:1010E000FFF740FF00214FF48010FFF73BFF56E071
:1010F000CA48844209D101214805FFF733FF002186
:101100004FF40010FFF72EFF49E0C548844208D194
:1011100001214020FFF733FF00214020FFF72FFF80
:101120003DE0C048844208D101218020FFF727FF1D
:1011300000218020FFF723FF31E0BB48844208D123
:1011400001218015FFF71BFF0021A015FFF717FFF6
:1011500025E0B648844209D101210804FFF702FFC7
:1011600000214FF48030FFF7FDFE18E0B0488442C4
:1011700009D101214804FFF7F5FE00214FF40030AA
:10118000FFF7F0FE0BE0AB48844208D10121880450
:10119000FFF7E8FE00214FF48020FFF7E3FE10BDCB
:1011A00000220288944B98420ED0994B98420BD063
:1011B000B0F1804F08D0914B984205D0904B9842A7
:1011C00002D0904B984204D14FF68F731A404B884F
:1011D0001A438D4B984207D08C4B984204D04FF65F
:1011E000FF431A40CB881A4302808B8883850B8883
:1011F0000385814B98420BD0854B984208D08B4B8E
:10120000984205D08A4B984202D08A4B984201D12D
:101210000B7A038601238382704770B50024002275
:101220000023058C4FF6FE7635400584028C8388BA
:10123000048B4FF68F752C40B51E2C400D882C4327
:10124000751E2A400D892A434D882A436A4DA842BB
:101250000BD06F4DA84208D0744DA84205D0744DF4
:10126000A84202D0734DA84213D14FF6F7752A4019
:101270004D892A434FF6FB752A408D882A434FF645
:10128000FF652B404FF6FF552B408D892B43CD89B1
:101290002B4383800483CD888586028470BD70B51E
:1012A000002400220023058C4FF6EF76354005849C
:1012B000028C8388048B48F6FF752C404FF6FF455F
:1012C0002C400D884FF6FF7606EA05252C434FF695
:1012D000DF752A400D8906EA05152A434D8806EA7E
:1012E00005152A43444DA84202D0494DA8421DD1BC
:1012F0004FF67F752A404D894FF6FF7606EA0515B1
:101300002A434FF6BF752A408D8806EA05152A4301
:101310004FF6FF352B404FF2FF752B408D8906EAC3
:1013200085052B43CD8906EA85052B4383800483FD
:10133000CD880587028470BD70B50024002200238B
:10134000058C4FF6FF6635400584028C8388848BBC
:101350004FF68F752C404FF6FC752C400D882C43B2
:101360004FF6FF552A400D894FF6FF7606EA052510
:101370002A434D8806EA05252A431F4DA84202D07C
:10138000234DA8421DD14FF2FF752A404D894FF6DB
:10139000FF7606EA05252A434FF6FF352A408D8859
:1013A00006EA05252A434EF6FF752B404DF6FF75DC
:1013B0002B408D8906EA05152B43CD8906EA0515D4
:1013C0002B4383808483CD888587028470BD70B56C
:1013D000002200230024058C4EF6FF76354005845C
:1013E000038C8488828B48F6FF752A404FF6FF45B0
:1013F0002A400D8820E00000002C0140000400403D
:1014000000080040000C00400010004000140040A4
:1014100000340140004C01400050014000540140A4
:1014200000180040001C0040002000400040014027
:1014300000440140004801404FF6FF7606EA0525CA
:101440002A434DF6FF752B400D8906EA05352B43DF
:101450004D8806EA05352B43FA4DA84202D0FA4DD5
:10146000A84208D14BF6FF752C408D894FF6FF76C8
:1014700006EA85152C4384808283CD88A0F84050ED
:10148000038470BD828B4FF2FF331A408283828BBC
:101490004FF6FF7303EA01231A4382837047F0B5C6
:1014A0000C461546002200210026078C4EF6FF7CD4
:1014B00007EA0C070784828B018C4FF6FF7707EA57
:1014C000043640F6FF473A404FF6FF7707EA052714
:1014D0003A434FF6FF7707EA03373A43D94FB8420A
:1014E0000ED0D94FB8420BD0B0F1804F08D0D74FB3
:1014F000B84205D0D64FB84202D0D64FB84206D136
:101500004DF6FF77394046F48057394305E047F6FA
:10151000FF57394044F48057394382830184F0BD3A
:10152000828B4FF6F3731A408283828B0A43828345
:101530007047F0B50C461546002200210026078CA6
:101540004FF6FF6C07EA0C070784828B018C4FF67D
:10155000FF7707EA04264FF60C773A404FF6FF77FD
:1015600007EA03172F433A43B64FB8420ED0B64F9F
:10157000B8420BD0B0F1804F08D0B44FB84205D07C
:10158000B34FB84202D0B34FB84206D14FF6FF571F
:10159000394046F48077394305E04FF2FF57394030
:1015A00044F48077394382830184F0BD028B4FF28B
:1015B000FF331A400283028B4FF6FF7303EA0123C5
:1015C0001A4302837047F0B50C46154600220021ED
:1015D0000026078C4FF6EF7C07EA0C070784028B86
:1015E000018C4FF6FF7707EA041640F6FF473A40B2
:1015F0004FF6FF7707EA03373A434FF6FF7707EADC
:1016000005273A438F4FB8420ED08F4FB8420BD0C8
:10161000B0F1804F08D08D4FB84205D08C4FB84202
:1016200002D08C4FB84206D14FF6DF77394046F0F2
:101630001007394305E04FF65F77394044F0100753
:10164000394302830184F0BD028B4FF6F3731A40D5
:101650000283028B0A4302837047F0B50C4615469D
:1016600000220021068C4FF6FE773E400684028B56
:10167000018C4FF60C7632407E1C06EA03162E4390
:101680003243704EB0420ED06F4EB0420BD0B0F12C
:10169000804F08D06D4EB04205D06D4EB04202D0A2
:1016A0006C4EB04206D14FF6FD76314044F0010653
:1016B000314305E04FF6F576314044F00106314301
:1016C00002830184F0BD70B505460C465D48854235
:1016D0000ED05D4885420BD0B5F1804F08D05B48F5
:1016E000854205D05A48854202D05A48854200D1E9
:1016F00000E000BF208850B92389A288618828466D
:10170000FFF7ABFFE1882846FFF79EFF25E0208822
:1017100004280AD12389A28861882846FFF753FF4D
:10172000E1882846FFF742FF17E0208808280AD101
:101730002389A28861882846FFF7FBFEE1882846B6
:10174000FFF7EEFE09E02389A28861882846FFF7AB
:10175000A6FEE1882846FFF795FE70BD2DE9F04111
:1017600005460C4600260127608808B9022600E0DD
:101770000026A088012801D1022700E00127208847
:10178000A0B92389A28861882846FFF766FFE1880F
:101790002846FFF759FF23893A4631462846FFF786
:1017A00012FFE1882846FFF701FF13E02389A28892
:1017B00061882846FFF707FFE1882846FFF7F6FE15
:1017C00023893A4631462846FFF747FFE1882846F5
:1017D000FFF73AFFBDE8F0810A884B881A438B88EF
:1017E0001A43CB881A430B891A434B891A438B89B6
:1017F0001A43A0F8442070474FF6FF718180002102
:101800000180C180418001727047002101804180C8
:101810008180C180018141818181C1817047002126
:1018200001804180012181800021C18001817047B8
:101830000021018041808180C180018141818181BD
:1018400070470000002C01400034014000040040BB
:1018500000080040000C004021B1028842F0010263
:10186000028004E002884FF6FE731A40028070473F
:1018700031B1B0F8442042F40042A0F8442005E021
:10188000B0F84420C2F30E02A0F8442070471AB109
:1018900083890B43838102E083898B438381704773
:1018A0008182704741EA0203A0F8483070471AB1BC
:1018B00083890B43838102E083898B438381704753
:1018C00001894FF6F8721140018170470A460021E4
:1018D00001894FF68F73194011430181704730B56C
:1018E00004460D4629462046FFF7F0FF208940F0C8
:1018F0000700208130BD2DE9F04104460D46164613
:101900001F46602D06D13B46012231462046FFF797
:101910005AFE05E03B46012231462046FFF79DFE78
:1019200029462046FFF7D2FF208940F0070020819A
:10193000BDE8F08130B50C4600210189C9B24FF6EF
:10194000FF7505EA0325154325432943018130BD71
:101950002DE9F04105460E461746984600244346B9
:101960003A4631462846FFF7E5FF2C894FF6F870D6
:10197000044044F007044FF68F70044044F07004B4
:101980002C81BDE8F081F0B504460D4616461F4691
:101990003B46324629462046FFF7CCFF208940F4DB
:1019A00080402081F0BD0185828270470A46002177
:1019B00001884FF68F731940114301807047F0B5CD
:1019C0000C4615461E460021002200230189028B89
:1019D000038C4FF6F877394021434FF6FC473A40E5
:1019E00040F201173A434FF6DD773B404FF6FF7761
:1019F00007EA06172F433B43018102830384F0BDAE
:101A00000A460021018B4FF68F7319401143018361
:101A100070470A460021018B48F6FF7319404FF6C4
:101A2000FF7303EA02231943018370470A4600212A
:101A3000818B4FF68F7319401143818370470A469B
:101A40000021818B48F6FF7319404FF6FF7303EABC
:101A5000022319438183704721B1028842F080023A
:101A6000028004E002884FF67F731A4002807047BC
:101A700021B1828842F00402828004E082884FF61D
:101A8000FB731A408280704721B1828842F00802BD
:101A9000828004E082884FF6F7731A408280704794
:101AA00021B1828842F00102828004E082884FF6F0
:101AB000FE731A40828070470A460021018B4FF660
:101AC000F77319401143018370470A460021018BC7
:101AD0004FF2FF7319404FF6FF7303EA02231943D5
:101AE000018370470A460021818B4FF6F773194036
:101AF0001143818370470A460021818B4FF2FF73A7
:101B000019404FF6FF7303EA02231943818370479C
:101B10000A460021018B4FF6FB73194011430183E4
:101B200070470A460021018B4FF6FF3319404FF6EC
:101B3000FF7303EA02231943018370470A46002119
:101B4000818B4FF6FB7319401143818370470A461E
:101B50000021818B4FF6FF3319404FF6FF7303EAE4
:101B600002231943818370470A460021018B4FF6F7
:101B70007F7319401143018370470A460021018B8E
:101B8000C1F30E014FF6FF7303EA022319430183E9
:101B900070470A460021818B4FF67F73194011432D
:101BA000818370470A460021818BC1F30E014FF6F5
:101BB000FF7303EA02231943818370470A46002119
:101BC000018C4FF6FD7319401143018470470A469A
:101BD0000021018C4FF6F7731940114301847047BF
:101BE0000A460021018C4FF6DF7319404FF6FF7350
:101BF00003EA02131943018470470A460021018C4D
:101C00004FF67F7319404FF6FF7303EA021319432F
:101C1000018470470A460021018C4FF6FF5319409A
:101C20004FF6FF7303EA02231943018470470A4603
:101C30000021018C4FF2FF7319404FF6FF7303EA46
:101C400002231943018470470A460021018C4DF696
:101C5000FF7319404FF6FF7303EA023319430184FF
:101C6000704730B5002301248C40A3B2048C9C4300
:101C70000484048C02FA01F5ADB22C43048430BD17
:101C800030B5002304248C40A3B2048C9C4304840C
:101C9000048C02FA01F5ADB22C43048430BD70B55A
:101CA0000346002000241846183001258D40ACB2B0
:101CB0001D8CA5431D8409B1082909D100EB6100E1
:101CC000056825F0700505600568154305600EE0A0
:101CD0000D1FC5F34E052844056825F4E045056051
:101CE00005684FF6FF7606EA02263543056070BDAB
:101CF00021B1028842F00202028004E002884FF61D
:101D0000FD731A400280704721B1028842F004023C
:101D1000028004E002884FF6FB731A40028070478D
:101D200021B1828842F08002828004E082884FF6EE
:101D30007F731A408280704702884FF6F7731A400B
:101D4000028002880A430280704782884FF68F73B0
:101D50001A40828082880A438280704702894FF647
:101D6000F8731A40028102890A430281704702898E
:101D70004FF67F731A40028102890A43028170473D
:101D800081847047818570478186704701877047DD
:101D900081877047A0F84010704702884FF6FF43D4
:101DA0001A40028002880A43028070470146888EEA
:101DB00070470146088F70470146888F704701467B
:101DC000B1F8400070470146888C70470146088D85
:101DD000704702460020138A0B400BB1012000E03F
:101DE00000207047CA430282704730B50246002087
:101DF00000230024158A05EA0103958905EA0104F8
:101E000013B10CB1012000E0002030BDCA430282B2
:101E10007047000010B50446FB48844209D10121F7
:101E20008803FFF79FF800214FF48040FFF79AF8EE
:101E300032E0F648844209D101214804FFF79FF8B7
:101E400000214FF40030FFF79AF825E0F048844273
:101E500009D101218804FFF792F800214FF4802076
:101E6000FFF78DF818E0EB48844209D10121C8043E
:101E7000FFF785F800214FF40020FFF780F80BE012
:101E8000E548844208D101210805FFF778F80021D0
:101E90004FF48010FFF773F810BD2DE9F04786B0BE
:101EA00005460E460024A24600BFA1460027B08981
:101EB00000B100BF2F462C8A4CF6FF700440F0881A
:101EC00004432C82AC894EF6F3100440B08831896B
:101ED0000843718908430443AC81AC8A4FF6FF4044
:101EE0000440B0890443AC8201A8FEF7B4FFC648A1
:101EF000874202D1DDF810A001E0DDF80CA0A8892E
:101F000000F4004040B10AEBCA0000EB0A1031684F
:101F10004900B0FBF1F807E00AEBCA0000EB0A1039
:101F200031688900B0FBF1F86420B8FBF0F00401DF
:101F30002009642101FB1089A88900F4004040B108
:101F4000322000EBC900B0FBF1F000F007000443C1
:101F500008E0322000EB09106421B0FBF1F000F042
:101F60000F0004432C8106B0BDE8F0874FF41651F2
:101F7000016000218180C18001810C21418100210B
:101F80008181704710B502460020108A4FF2FF038E
:101F900018400B884C8823438C882343CC882343E8
:101FA0001843108210BD0021018041808180C180D2
:101FB000704721B1828942F40052828104E0828913
:101FC0004DF6FF731A4082817047F0B50346002436
:101FD00000260025002040F66A17B94200D100BF54
:101FE0001846C1F3421401F01F06012707FA06F54F
:101FF000012C01D10C3004E0022C01D1103000E0A2
:1020000014301AB107682F43076002E00768AF4336
:102010000760F0BD1AB1838A0B43838202E0838A92
:102020008B4383827047028A4FF6F0731A40028214
:10203000028A0A430282704782894FF2FF731A4074
:10204000828182890A438281704721B1828942F06C
:102050000202828104E082894FF6FD731A40828178
:102060007047028A4FF6DF731A400282028A0A43DF
:102070000282704721B1028A42F48042028204E067
:10208000028A4BF6FF731A4002827047C1F30802BE
:102090008280704701468888C0F3080070478189B4
:1020A00041F0010181817047028BD2B20283028B21
:1020B00042EA012202837047028B02F47F420283CC
:1020C000028B0A430283704721B1828A42F02002C8
:1020D000828204E0828A4FF6DF731A408282704760
:1020E00021B1828A42F01002828204E0828A4FF695
:1020F000EF731A408282704721B1828A42F008024F
:10210000828204E0828A4FF6F7731A408282704717
:1021100021B1828942F40042828103E08289C2F3C4
:102120000E028281704721B1828A42F4006282826B
:1021300004E0828A4FF2FF731A4082827047828ADB
:102140004FF6FB731A408282828A0A43828270476A
:1021500021B1828A42F00202828204E0828A4FF632
:10216000FD731A408282704702460020B1F5007F5D
:1021700000D100BF13880B400BB1012000E000200C
:10218000704701F40072B2F5007F00D100BFCA436E
:102190000280704770B5024600240023002500200D
:1021A00040F66A16B14200D100BFC1F3421501F0FA
:1021B0001F03012606FA03F3012D02D1968933404D
:1021C00006E0022D02D1168A334001E0968A3340A0
:1021D0000C12012606FA04F41688344013B10CB12F
:1021E000012000E0002070BD10B50022002340F661
:1021F0006A14A14200D100BF0A1201249440A3B284
:10220000DC43048010BD0000003801400044004061
:1022100000480040004C00400050004000F0CAFB65
:1022200001F0DFF801F0DDF801F0DBF801F0D9F89A
:1022300001F015F801210A48FFF70EFB0EE00948EE
:10224000007810B101F076FA08E007480088C82845
:1022500004DD00F09BF9002003490880EFE700004F
:10226000002C0140780000203400002010B5102020
:10227000FEF74AF810B11020FEF757F810BD10B560
:102280004FF40050FEF740F828B14FF40050FEF72D
:102290004CF801F04FFA10BD704700BFFEE700BFD9
:1022A000FEE700BFFEE700BFFEE7704770477047DC
:1022B00010B52248FEF7CFFD204800682049B0FB4A
:1022C000F1F02049086001F0A7FB10BD00BF1E48D7
:1022D00001684FF0E02082691B4800688142F6D116
:1022E0001848006800EB4003C3EBC010C2EBC0000D
:1022F000144B1B68B0FBF3F001EB4103C3EBC113BC
:1023000000EBC300704710480068704730B50446C2
:10231000FFF7DCFF054600BFFFF7D8FF401B04EBCB
:102320004401C1EBC411B0EBC10FF5D330BD064879
:102330000068401C04490860704700009C000020B1
:1023400040420F0014000020180000202DE9F04743
:1023500004464FF07C51204601F022FC8046254681
:102360009D48A0EB65052C464146204601F018FC2F
:102370008146214601F014FC07464FF07F5101F0E1
:102380000CFC0646214601F00BFC04462046BDE845
:10239000F0872DE9FC5F914A1168914A106801F0BD
:1023A000F9FB904908608D4A51688D4A506801F0E8
:1023B000F1FB8C494860894A9168894A906801F02C
:1023C000E9FB884988600A469168906801F0E8FB5B
:1023D000844A01905168506801F0E2FB0090019935
:1023E00001F086FB8346FFF7B1FF82467D48016816
:1023F000504601F0D5FB814602F050FE044601F044
:1024000047FD07464FF06632774B01F039FC054631
:1024100001F051FD75498860724A9168906801F039
:10242000BFFB704A01901168106801F0B9FB009081
:10243000019901F05DFB8346FFF788FF82466948FA
:102440004168504601F0ACFB814602F027FE04468D
:1024500001F01EFD07464FF06632654B01F010FC9F
:10246000054601F028FD61490860086802F092FF06
:10247000604908605D49086802F0CEFE5E49086068
:102480005A49886802F086FF5C49086057498868A5
:1024900002F0C2FE5A490860BDE8FC9F2DE9F041F8
:1024A000584A1168584A106801F074FB574908608F
:1024B000544A5168544A506801F06CFB53494860D3
:1024C000504A9168504A906801F064FB4F49886017
:1024D00088684A49096801F063FB04464B4908686B
:1024E0004749096801F05CFB0546214601F000FB05
:1024F00047490860454988684149096801F050FB2F
:1025000006463C480168304601F04AFB04463F4914
:1025100048683949096801F043FB07463B490868A8
:102520003449096801F03CFB804634480168404664
:1025300001F036FB0646394601F0DAFA0546214637
:1025400001F028FB334908600846016830480068FC
:1025500002F076FC804601F09BFC06462E4A244B96
:10256000833B01F08DFB044601F0A5FC1F49486048
:102570004868002101F0BCFC06D21C494868274984
:1025800001F0B6FA19494860BDE8F0812DE9FF472E
:1025900000F0ECFF00F0B7FDFFF7FBFEFFF77EFF5A
:1025A0001249486801F074FC04460D460F4908685A
:1025B00001F06EFC06460F460C49886801F068FC85
:1025C000804642460B4616A0CDE90067CDE902459C
:1025D00001F0E0FEBDE8FF87DF59375FD40000203F
:1025E000DC010020BC00002066A64CC0B00000202A
:1025F00066A64C401C000020200000202400002083
:1026000028000020E000002010010020C800002069
:102610002C00002030000020D9CEF7530000B44336
:10262000726F6C6C3A252E32662070697463683A5A
:10263000252E3266207961773A252E32660A00000F
:102640002DE9F041002400250026002700BF14E0FA
:1026500000F08CFF4C480168284601F049FA054615
:1026600049484168304601F043FA064646488168C9
:10267000384601F03DFA0746641C642CE8DB434908
:10268000284601F0BFFA424908604049304601F04F
:10269000B9FA3F4948603D49304601F0B3FA3C4938
:1026A0008860BDE8F08110B500F02DFD394A116851
:1026B000394A106801F026FC03D2374800683549D2
:1026C0000860364A1168344A106801F011FC03D2E0
:1026D00031480068314908602E4A51682E4A5068D6
:1026E00001F010FC03D22C4840682A4948602B4A6C
:1026F0001168294A106801F0FBFB03D226484068A4
:1027000026494860254A1168224A106801F0F0F90C
:1027100004464FF0804101F075FA214908601F4AD4
:1027200051681C4A506801F0E3F904464FF08041BB
:1027300001F068FA1A49486010BD10B500F0E3FCDA
:10274000144A9168144A906801F0DCFB03D21248E5
:10275000006810498860114A91680F4A906801F03A
:10276000C7FB03D20C4880680C4988600B4A91680B
:10277000084A906801F0BCF904464FF0804101F02E
:1027800041FA0749886010BDDC0100200000C84202
:10279000D4000020EC00002010010020F8000020F0
:1027A000E000002070B504460D46E1B28A48FFF70C
:1027B0006DFC00BF40218848FFF7D6FC0028F9D007
:1027C000204670BD10B5FEF745FA0020FEF7E7FA87
:1027D0004FF48060FEF7ECFA0020FEF7F2FA0020DA
:1027E000FEF70AFB0220FDF7A9FD1020FDF7BAFD58
:1027F0004FF460110020FEF7B5FA0120FEF7BEFA93
:1028000000BF3920FEF769FA0028FAD00220FEF74F
:10281000B8FA00BFFEF7BEFA0828FBD101211C2040
:10282000FEF786FB01210846FEF782FB0121C80264
:10283000FEF77EFB01214804FEF787FB10BD10B5B3
:1028400086B0044601210520FEF772FB01214804F1
:10285000FEF77BFB0420ADF8140018208DF817005C
:1028600003208DF8160005A95C48FEF7A5F808209E
:10287000ADF8140004208DF8170005A95748FEF79D
:102880009BF801940020ADF80800ADF80A00ADF8FF
:102890000C00ADF810000C20ADF80E0001A94E4858
:1028A000FFF7FBFA01214C48FFF783FB06B010BD90
:1028B0000EB54B48FEF7A0FB0121C802FEF738FB1E
:1028C00041F28830ADF804003F20ADF80000002050
:1028D000ADF80600ADF802008DF8080069464048E2
:1028E000FEF75EFC01213E48FFF77CFA0122412100
:1028F0003B48FEF7CCFF00213948FEF7ADFF0EBD87
:1029000010B501213648FFF770FAD8B13548008874
:10291000401C344908804FF400513348FEF7DFF87B
:102920003249097840EA4100304908700846007889
:10293000F02802D100F0A5FE00E000BF01212848E8
:10294000FFF764FA10BD1CB501210846FEF7F0FA46
:102950000D210220FEF746F94FF4005000900020B0
:102960008DF804000C208DF8050001208DF806007C
:102970006846FDF763FC1CBD08B528208DF80000F3
:1029800001208DF8010000208DF8020001208DF853
:1029900003006846FDF7DBFB19208DF800000120DD
:1029A0008DF801008DF802008DF803006846FDF7F0
:1029B000CEFB08BD10B501F008F8FFF703FF4FF498
:1029C000E130FFF73CFF00F04BFE00F076F9FFF737
:1029D0006FFFFFF7D1FF10BD004400400008014029
:1029E000002C01403400002000100140360000207F
:1029F00008B5002100913EE000BF00BF00BF00BF4E
:102A000000BF00BF00BF00BF00BF00BF00BF00BFCE
:102A100000BF00BF00BF00BF00BF00BF00BF00BFBE
:102A200000BF00BF00BF00BF00BF00BF00BF00BFAE
:102A300000BF00BF00BF00BF00BF00BF00BF00BF9E
:102A400000BF00BF00BF00BF00BF00BF00BF00BF8E
:102A500000BF00BF00BF00BF00BF00BF00BF00BF7E
:102A600000BF00BF00BF00BF00BF00BF00BF00BF6E
:102A70000099491C009100998142BDD308BD00B561
:102A80000520FFF7B5FF00BD10B5F748006820F03E
:102A9000F000F54908600846006840F03000086022
:102AA0004815F1490C31086040100860FFF7E7FF56
:102AB0004FF40070EC4910310860FFF7E0FF4FF46D
:102AC0008070E94910310860FFF7D9FF10BD10B5DB
:102AD000E548006820F0F000E34908600846006817
:102AE00040F0300008604815DF49103108604010A0
:102AF000091F0860FFF7C3FF4FF40070DA490C317B
:102B0000086010BD70B50446002526E004F0800082
:102B100028B14FF40070D4490C31086004E04FF440
:102B20000070D14910310860FFF7A9FF4FF48070A1
:102B3000CD490C310860FFF7A2FF4FF48070CA49FD
:102B400010310860072D02D14000091F086060069F
:102B5000040EFFF794FF681CC5B2082DD6DB70BDCC
:102B600010B54FF40070C04910310860FFF787FFBF
:102B70004FF48070BC490C310860FFF780FF4FF4C0
:102B80008070B94910310860FFF779FF4FF4007089
:102B9000B5490C31086010BD10B54FF40070B24952
:102BA0000C310860FFF76BFF4FF48070AE490C31B9
:102BB0000860FFF764FF4FF48070AB491031086084
:102BC000FFF75DFF10BD70B50546A748006820F00F
:102BD000F000A54908600846006840F080000860E1
:102BE000FFF74DFF0024002619E06006040E4FF4A5
:102BF00080709D490C310860FFF741FF9A48001D25
:102C0000006800F4007008B1601CC4B24FF480701A
:102C1000954910310860FFF732FF701CC6B2082ECC
:102C2000E3DB9148006820F0F0008F490860084617
:102C3000006840F030000860FFF721FF15B9FFF78A
:102C4000ABFF01E0FFF78CFF204670BD10B54FF4DD
:102C5000007085490C3108608348006820F0F0005E
:102C6000814908600846006840F080000860FFF76E
:102C700006FF4FF480707C490C310860FFF7FFFEBF
:102C80007948001D006800F4007008B1012400E0DC
:102C900000244FF480707449103108607248006855
:102CA00020F0F000704908600846006840F03000ED
:102CB0000860FFF7E4FE204610BD08B5012108209A
:102CC000FEF736F94FF44070ADF8000003208DF8A0
:102CD000020014208DF8030069466348001FFDF7C9
:102CE0006BFEFFF7F4FE08BD70B506460C461546B0
:102CF000FFF7CAFE3046FFF705FFFFF7A7FF08B151
:102D0000002070BD2046FFF7FDFEFFF79FFF08B1D2
:102D10000020F6E72846FFF7F5FEFFF797FF08B11A
:102D20000020EEE7FFF7D3FE0120EAE72DE9F041AE
:102D300080460D4616461F46FFF7A6FE4046FFF7A3
:102D4000E1FEFFF783FF10B10020BDE8F0812846C7
:102D5000FFF7D8FEFFF77AFF08B10020F5E700245F
:102D600009E0305DFFF7CEFEFFF770FF08B10020ED
:102D7000EBE7601CC4B2BC42F3DBFFF7A8FE012006
:102D8000E3E72DE9F04106460F4614469846FFF763
:102D90007BFE3046FFF7B6FEFFF758FF10B100206C
:102DA000BDE8F0813846FFF7ADFEFFF74FFF08B1F1
:102DB0000020F5E7FFF768FE46F00100FFF7A2FEEE
:102DC000FFF744FF08B10020EAE7002506E00120F4
:102DD000FFF7F9FE2070641C681CC5B2A8F1010061
:102DE000A842F4DC0020FFF7EEFE2070FFF76FFE34
:102DF0000120D5E72DE9F04107460D461646FFF7BD
:102E000043FEF020FFF77EFEFFF720FF10B1002009
:102E1000BDE8F0813846FFF775FEFFF717FF08B1F0
:102E20000020F5E7002409E0285DFFF76BFEFFF7BF
:102E30000DFF08B10020EBE7601CC4B2B442F3DB25
:102E4000FFF745FE0120E3E770B504460E46FFF7A5
:102E50001BFEF120FFF756FEFFF7F8FE08B1002039
:102E600070BD002509E00000040C01400120FFF7BF
:102E7000AAFE2070641C681CC5B2701EA842F5DC56
:102E80000020FFF7A0FE2070FFF721FE0120E7E7FA
:102E900070B504460D46164633462A46214658204C
:102EA000FFF76FFF70BD70B504460D462A462146F8
:102EB0005820FFF719FF70BD60B90121FE4A11705B
:102EC000517091700021D1700122FB490A710222D8
:102ED0004A717AE001280CD1FF21F74A11700121D3
:102EE00051709170D1700022F3490A7102224A7127
:102EF0006BE002280DD1FF21EF4A117051700121C2
:102F000091700021D1700122EB490A7102224A71AD
:102F10005BE003280DD10121E74A1170FF215170B8
:102F200001219170D1700022E3490A7102224A7195
:102F30004BE004280ED1FF21DF4A117001215170AE
:102F4000FF2191700021D1700122DB490A71022218
:102F50004A713AE005280DD10121D74A117051700C
:102F6000FF2191700121D1700022D3490A71022200
:102F70004A712AE006280DD10121CF4A1170FF21A4
:102F8000517091700021D1700122CB490A71022247
:102F90004A711AE007280CD1FF21C74A11705170FD
:102FA00091700121D1700022C3490A7102224A7135
:102FB0000BE00121C04A1170517091700021D17055
:102FC0000122BD490A7102224A71704738B50020BA
:102FD0000090002401226946FFF75AFF04462CB9ED
:102FE000B649B7A001F0D6F9002038BD9DF8001011
:102FF000BBA001F0CFF9C34800789DF8001008404D
:10300000C049097888421AD1BE4840789DF800101E
:103010000840BC494978884211D1BA4880789DF867
:1030200000100840B7498978884208D1B548C0786F
:103030009DF800100840B349C978884200D00024A8
:103040000120D2E770B588B00020049005900025DB
:10305000039007E009200390012203A9FFF718FF5E
:1030600004466D1C9DF80C0000F0010008B9052D08
:10307000F0DB01208DF81800062206A9FFF708FFF3
:10308000044614B9002008B070BD9DF818009DF8E2
:10309000191040EA012000B2ADF810009DF81A00A6
:1030A0009DF81B1040EA012000B2ADF812009DF817
:1030B0001C009DF81D1040EA012000B2ADF814007C
:1030C000BDF9100000F0BDFE06468F4900F09AFDE4
:1030D0008E4900900860BDF9120000F0B2FE06466D
:1030E000894900F08FFD894901904860BDF91400BD
:1030F00000F0A7FE0646844900F084FD8349029053
:1031000088602046BFE72DE9F04100240025002615
:103110000027FFF797FF7D4800687D497D4A1278B8
:1031200041F82200794840687B497A4A127841F890
:103130002200764880687949764A127841F8220060
:1031400074480078401C73490870084600780C28C1
:1031500001D100200870002416E06D4850F82410BA
:10316000284600F0C5FC05466B4850F82410304650
:1031700000F0BEFC0646694850F82410384600F0BE
:10318000B7FC0746601CC4B20C2CE6DB6449284639
:1031900000F038FD634908606149304600F032FDB7
:1031A000604948605E49384600F02CFD5D49886002
:1031B000BDE8F08138B504460025002000900122CA
:1031C00069460A20FFF764FE05469DF8000020F0DE
:1031D0000300204300909DF800200A2152A001F036
:1031E000D9F89DF800100A20FFF75DFE0546284635
:1031F00038BD38B5044600250020009001226946FC
:103200000A20FFF745FE05469DF8000020F0E80083
:1032100040EA4410C0B200909DF800200A214CA062
:1032200001F0B8F89DF800100A20FFF73CFE0546B3
:10323000284638BD10B540210D20FFF734FE044666
:1032400008210B20FFF72FFE04460220FFF7D1FFD5
:1032500004460320FFF7AEFF0446204610BD38B5F4
:103260000024FFF7B3FE04460CB9002038BD00204F
:10327000FFF722FEFFF7DEFF012269460A20FFF773
:1032800007FE9DF800200A213EA001F083F80122EC
:1032900069460B20FFF7FCFD9DF800200B2139A0AB
:1032A00001F078F8012269460D20FFF7F1FD9DF845
:1032B00000200D2133A071E03B0000201C550008C8
:1032C00025733A20716D63363330385F6765745FFC
:1032D000636869706964206661696C65640A0000EE
:1032E000716D63363330385F6765745F636869702A
:1032F000696420636869706964203D2030782578AE
:103300000A0000003700002000007A440401002079
:103310001C010020410000204C0100207C01002005
:103320000000404110010020716D63363330385F7A
:103330007365745F6D6F64652C2030783041203D7B
:10334000205B253032785D2D3E5B253032785D0084
:10335000716D63363330385F7365745F6F75747089
:1033600075745F646174615F726174652C2030787C
:103370003041203D205B253032785D2D3E5B25308D
:1033800032785D00716D6336333038202030782517
:10339000783D30782578200A0000000000F0FAFF20
:1033A000012063E706E0002101E0521C491CC82906
:1033B000FBD3401E0028F6D1704770B504460D4679
:1033C0002A4621462420FFF78FFC70BD70B50446C5
:1033D0000D46164633462A4621462420FFF7D1FCE7
:1033E00070BD10B501228D490020FFF7EFFF8B481B
:1033F00001788BA000F0CEFF88480078E0282BDB16
:1034000086480078E72827DCB6213620FFF7D5FF6D
:1034100047F23050FFF7C6FF00213620FFF7CDFFFF
:1034200002210F20FFF7C9FF4FF400607F49088099
:10343000E2207F490870084601781020FFF7BDFFA1
:1034400080211120FFF7B9FF80215F20FFF7B5FF32
:1034500000215F20FFF7B1FF10BD2DE9FC5F0020C8
:1034600001900090062273490120FFF7AFFF019001
:10347000019808B9BDE8FC9F6E484078000200B290
:103480006C49097808436C4908806A48C078000292
:1034900000B268498978084367494880654840799F
:1034A000000200B2634909790843634988800846ED
:1034B000B0F90000801008800846B0F902008010C2
:1034C00048800846B0F9040080108880574800887A
:1034D00000F0D1FC06460F465749B1F9000000F054
:1034E000B9FC8246554A564B00F0CAFB804632462C
:1034F0003B4600F037FC044600F0DDFC5149086013
:103500004A48008800F0B7FC06460F464A49B1F920
:10351000020000F09FFC8246484A494B00F0B0FB95
:10352000804632463B4600F01DFC044600F0C3FCDA
:10353000444948603D48008800F09DFC804689462B
:103540003D49B1F9040000F085FC06463B4A3C4B7E
:1035500000F096FB044642464B4600F003FC8246D0
:1035600000F0A9FC3749886000BF83E72DE9F041EE
:103570000024002500260027FFF76FFF3148006870
:103580003149324A127841F822002E4840683049C9
:103590002E4A127841F822002A4880682D492B4A89
:1035A000127841F8220029480078401C2749087009
:1035B000084600780C2801D100200870002416E08D
:1035C000214850F82410284600F092FA0546204879
:1035D00050F82410304600F08BFA06461D4850F88B
:1035E0002410384600F084FA0746601CC4B20C2C44
:1035F000E6DB1949284600F005FB18490860164922
:10360000304600F0FFFA154948601349384600F08B
:10361000F9FA12498860BDE8F081000044000020FA
:103620006368697069643A25640A000046000020F6
:1036300048000020600000205A00002077BE9F1A3A
:103640002F9D2340AC010020E801002070000020E5
:10365000180200204802002000004041DC01002048
:1036600008B501211020FDF763FC4FF40050ADF8C0
:10367000000004208DF8030069464E48FDF79CF9D0
:1036800008BD10B54C480078401C4B4908700846EE
:103690000078072801DD00200870474800780828D6
:1036A00045D2DFE800F0440411152226363A012005
:1036B0004249087042A000F06DFE45A000F06AFE8D
:1036C00001205349087033E002203C4908702FE084
:1036D00003203A4908704FA000F05CFE01205D49CC
:1036E00008705DA000F056FE22E004203349087007
:1036F0001EE00520314908700020564908706348D3
:1037000000F048FE01206249087053A000F042FE1C
:103710000EE00620294908700AE0072027490870B2
:1037200000205B4908705BA000F034FE00E000BFA1
:1037300000BF10BD10B521480078082837D2DFE857
:1037400000F00405061F202A2B3531E030E011E09F
:10375000FEF776FF59480068401C58490860084643
:1037600000681E2805D100202949087054A000F0E7
:1037700011FE03E0264800780028E9D100BF00BF11
:1037800016E002E0FEF78FFF03E0324800780028E1
:10379000F8D100BF00BF0BE002E0FEF7CEFF03E070
:1037A0003B4800780028F8D100BF00BF00E000BF10
:1037B00000BF10BD001001407700002078000020FD
:1037C000D0A3D7BCC4A3CABDD2D1BDF8C8EB0A00F0
:1037D000BDD3CFC2C0B4BDF8D0D0BCD3CBD9B6C84E
:1037E000BCC6D0A3D7BC2CD0A3D7BCB9FDB3CCD614
:1037F000D0C7EBCEF0D2C6B6AFC2DEC5CC2CC7EB7D
:10380000B0B4B0B4BCFCBFAACABCA1ADA1AD0A00A3
:1038100074000020BCD3BCC6D0A3D7BCCDEAB3C9CA
:103820002CBDD3CFC2C0B4BDF8D0D0B4C5C1A6BCE6
:10383000C658BACD59D6E1D0A3D7BC2CC7EBCBAE76
:10384000C6BDD0FDD7AAC2DEC5CCD2BBD6DCA1ADE9
:10385000A1AD0A0075000020C7EBB0B4CFC2B0B470
:10386000BCFCBFAACABCD0FDD7AA2CD0FDD7AACD1C
:10387000EAB3C9BAF3C7EBD4D9B4CEB0B4CFC2B0AF
:10388000B4BCFCA1ADA1AD0A000000005055000879
:1038900076000020B4C5C1A6BCC6D0A3D7BCCDEA73
:1038A000B3C92CC7EBB0B4B0B4BCFCCDCBB3F6D02D
:1038B000A3D7BCC4A3CABD0A000000007C0000203E
:1038C000BCD3BCC6D0A3D7BCCDEAB3C92CC7EBB020
:1038D000B4B0B4BCFCBDF8D0D0CFC2D2BBB2BDD066
:1038E000A3D7BCA1ADA1AD0A000000000CB500201B
:1038F000019000906C48006840F480306A4908608C
:1039000000BF6948006800F4003000900198401C36
:103910000190009818B90198B0F5A06FF1D16248F4
:10392000006800F4003010B10120009001E0002098
:1039300000900098012843D15C48006840F01000D6
:103940005A4908600846006820F0030008600846ED
:10395000006840F0020008605348406852494860DF
:103960000846406848600846406840F48060486007
:103970000846406820F47C1048600846406840F4DF
:10398000E81048600846006840F08070086000BF9A
:103990004548006800F000700028F9D042484068AF
:1039A00020F00300404948600846406840F00200AB
:1039B000486000BF3C48406800F00C000828F9D17E
:1039C0000CBD10B5FFF792FF10BD10B5364800686A
:1039D00040F0010034490860084640683449084016
:1039E0003149486008460068324908402E4908605D
:1039F0000846006820F4802008600846406820F4EB
:103A0000FE0048604FF41F008860FFF7DAFF4FF0B8
:103A100000602949086010BD10B500210020002277
:103A2000214B5B6803F00C0121B1042906D0082961
:103A300028D107E0214B224C236027E01F4B204C6C
:103A4000236023E0184B5B6803F47010164B5B682F
:103A500003F48032022303EB904022B9194B434315
:103A6000174C23600DE0104B5B6803F4003323B167
:103A7000144B4343124C236003E0104B4343104C60
:103A8000236003E00D4B0E4C236000BF00BF064BCC
:103A90005B68C3F303130C4CE15C094B1B68CB4020
:103AA000074C236010BD00000010024000200240BF
:103AB0000000FFF8FFFFF6FE08ED00E000127A00BC
:103AC0008000002000093D00840000200648804757
:103AD00006480047FEE7FEE7FEE7FEE7FEE7FEE7F3
:103AE000FEE7FEE7FEE7FEE7CB39000831010008FC
:103AF000F0B480EA0102D40F4200B2EB410F02D2CF
:103B00000246084611464A0042D0C30DDDB2C1F359
:103B1000C752AD1A202D35DAC1F3160141F4000267
:103B200004B15242C5F1200602FA06F12A411044BE
:103B3000B3EBD05F23D0C4B1012DA0EBC35009DC9F
:103B4000F0BC4FF0004202EAC352DBB200F50000C5
:103B500000F032BA400000F1807000EBC350A0F1D9
:103B6000807040EAD170490009E0490841EAC0711B
:103B7000A0EBC35000F50000400800EBC350F0BCC0
:103B800000F011BA6142012202EB4101001BF6E78D
:103B9000F0BC704781F00041AAE780F00040A7E741
:103BA00080EA010210B502F00043400022D04A0032
:103BB0001FD0010E01EB1261C0F35600C2F3560292
:103BC00040F4000042F40002A0FB022000047F3910
:103BD000140400D0401C50EA124001D44000491E99
:103BE000C2B20C0604EBD010401C4008802A02D060
:103BF00003E0002010BD20F00100002900DA0020C1
:103C0000184310BD30B480EA010202F0004530F0E4
:103C1000004221F0004013D090B1C30DD40DC2F387
:103C20001601C0F31600E41A41F4000140F400024A
:103C30007D34914201D3641C00E04900002C02DA7B
:103C400030BC002070474FF400000023914201D3A4
:103C5000891A034340084FEA4101F7D151B191421B
:103C600002D14FF0004105E002D24FF0010101E026
:103C70006FF0010103EBC450284430BC00F093B94D
:103C80002DE9FE4F81EA030404F0004421F00041D5
:103C900000944FF0000B23F0004350EA01045ED083
:103CA00052EA03045BD0C3F30A54C1F30A552C440F
:103CB000A4F2F3340194A0FB0254C1F3130141F4C4
:103CC0008011C3F3130343F4801301FB024400FB90
:103CD000034E840A970A44EA815447EA8357A4FBB7
:103CE000076802958D0A05FB07854FEA932C04FBB4
:103CF0000C542705029D4FEA065847EA1637B5EBE4
:103D000008056EEB070C870E920E47EA811742EA10
:103D10008312A7FB0201B6EB0B0164EB00042B0D31
:103D200043EA0C335E1844EB1C50DA465146E7FB7D
:103D30000201C5F313044FEA0B3343EA14534FEA6D
:103D40000432019C43EA0603A4F10C040294009C93
:103D5000CDE900B400F08BF903B0BDE8F08F00208E
:103D60000146F9E72DE9F04D81EA030404F0004B28
:103D700021F0004514464FF0000A23F0004150EABC
:103D8000050220D054EA01021DD0C5F30A570246AD
:103D9000C5F31303C1F31300C1F30A5640F48015B1
:103DA00043F48013A7EB0608101BD64608F2FD3833
:103DB00073EB050002D308F1010801E092185B41A2
:103DC000B8F1000F03DA00200146BDE8F08D0020B5
:103DD0004FF48011064684460EE0171B73EB05076F
:103DE00005D3121B63EB050306434CEA010C49089B
:103DF0004FEA300092185B4150EA0107EDD152EAD8
:103E0000030012D082EA040083EA0501084305D0CA
:103E1000101BAB4106D20122002306E000224FF026
:103E2000004302E06FF0010253101AEB06004CEB66
:103E3000085110EB0A0041EB0B01BDE8F04D00F01A
:103E400007B9C10F80EAE0700844CA079623002131
:103E500000F0B2B80EB5C10F80EAE0700844CA079E
:103E6000002140F233438DE80E000A460B4600F075
:103E7000FEF803B000BD0EB540F2334102910021BF
:103E8000CDE900110A460B4600F0F1F803B000BD81
:103E900000F0004230F000400AD0C10D01F5607121
:103EA000C0F3160042EA0151C208400711437047AF
:103EB00000200146704701F0004330B421F000417A
:103EC00050EA010206D00A0DA2F56072C1F3130197
:103ED000002A02DC30BC00207047440F44EAC104D1
:103EE000C100E01830BC00EBC25000F05CB800002C
:103EF000002801DBC0F10040002901DBC1F10041D5
:103F000081427047002801DBC0F10040002901DB3D
:103F1000C1F100418842704730B50B460146002090
:103F20002022012409E021FA02F59D4205D303FA7B
:103F300002F5491B04FA02F52844151EA2F10102FC
:103F4000F1DC30BD2DE9F05F0546002092469B462E
:103F500088460646814640241BE02846414647469F
:103F6000224600F0E4F953465A46C01A914110D354
:103F700011461846224600F0CBF92D1A67EB0108CE
:103F80004F4622460120002100F0C2F917EB00093C
:103F90004E41201EA4F10104DFDC484631462A468A
:103FA0004346BDE8F09F0029A8BF7047401C490068
:103FB00008BF20F00100704710B4B0FA80FC00FA8E
:103FC0000CF050EA010404BF10BC704749B1CCF1B9
:103FD000200421FA04F411FA0CF118BF0121214345
:103FE0000843A3EB0C01CB1D4FEA00614FEA102000
:103FF00042BF002010BC704700EBC35010440029A2
:10400000A4BF10BC7047401C490008BF20F001004D
:1040100010BC704710B541000CD0C0F3C7519629B1
:1040200008DC7E2909DC06DB410204D000F00040F8
:1040300040F07E5010BD002010BDC1F19604C4F1C7
:10404000200100FA01F1E040FFF7ADFFA04010BDF4
:1040500010B5141E73F1000408DA401C41F1000190
:1040600092185B411A4301D120F0010010BD2DE9E7
:10407000F04D92469B4611B1B1FA81F202E0B0FADE
:1040800080F22032904600F043F904460F4640EAA1
:104090000A0041EA0B0153465A46084313D0114621
:1040A00053EA010019D0C8F14002504600F03FF930
:1040B00005460E4650465946424600F029F9084347
:1040C00005D0012004E020463946BDE8F08D0020EF
:1040D000054346EAE0762C4337430A986305E40A31
:1040E000A0EB08000022FD0A44EA47540A3002D53A
:1040F00000200146E9E7010510196941DDE908459D
:1041000000196941BDE8F04DA2E72DE9FE4F804658
:1041100081EA0300C00F0C46009021F0004123F01B
:104120000045B8EB0200A94105D240462146904621
:104130001C460B46024623F00040104347D0270D93
:10414000C7F30A00C3F30A510290401A01904028B5
:104150006BDAC3F3130040F4801B0098924620B141
:104160000023D2EB030A63EB0B0B01985946C0F115
:104170004002504600F0CCF806460D4650465946DF
:10418000019A00F0E4F810EB08006141002487EA8E
:10419000115284EAE7731A4340D0009A62B3019A3D
:1041A000012A4FEA075215DC001B61EB02014FF0B8
:1041B000004202EA0752CDE90042001C41F580119D
:1041C00032462B46FFF753FF03B0BDE8F08F404661
:1041D0002146F9E7001B61EB0201001C41F5801349
:1041E00000185B412018A2F5001747EB030140EAD5
:1041F000D570B6196D4111E06D084FEA360645EAF3
:10420000C0754FEA0752001B61EB0201001C41F52B
:10421000801149084FEA30000019514132462B46BF
:1042200003B0BDE8F04FFFF713BF00980122400034
:104230000023D0EB020263EBE073009821464FEAC3
:10424000E074B8EB000061EB0401E9E783F00043A0
:104250005BE781F0004158E700F0004220F00040A9
:10426000C10DC0F3160040F400007F2901DA0020E0
:104270007047962903DCC1F19601C84001E09639E8
:104280008840002AF4D040427047C1F30A52C1F37B
:10429000130140F2FF3341F480119A4202DA002008
:1042A0000146704740F233439A42A2F2334202DCA5
:1042B000524200F03CB800F02BB8000030B5041EAC
:1042C00071F1000404DB4FF00044404264EB010153
:1042D000141E73F1000405DB1C464FF000435242EC
:1042E00063EB0403994208BF904230BD064C074D72
:1042F00006E0E06840F0010394E8070098471034B6
:10430000AC42F6D3FBF718FF94550008B4550008EB
:10431000202A04DB203A00FA02F100207047914085
:10432000C2F1200320FA03F3194390407047202A7A
:1043300004DB203A21FA02F00021704721FA02F34F
:10434000D040C2F120029140084319467047202A0C
:1043500006DBCB17203A41FA02F043EAE07306E0AD
:1043600041FA02F3D040C2F12002914008431946BD
:104370007047420005D0C0F3C7525242914201DC5F
:104380000020704700EBC150704796230022114671
:10439000FFF712BE0FB4054B10B503A9044A0298EB
:1043A00000F0B6F910BC5DF814FB0000A52700086A
:1043B000940000204100080218BF04200A0E18BF14
:1043C00040F001004FF07F4232EA010108BF40F0A7
:1043D0000200012808BF052070470121FFF7C9BF6F
:1043E000FFF786BB00210846FFF70CBC6FF05E01AB
:1043F0000807FFF7BEBF00002DE9F04D0D4614463B
:104400004FF07F41B1EB440F9EBF4FF0FF31296069
:10441000BDE8F08D4FF0004040EA0421C4F3C750DE
:10442000783810F01F024A4B4FEA601CC2F1200698
:104430007B44C4F3C750A0F178004FEA601003EB4F
:10444000800053F82C3008BFD0E901C612D0D0F854
:1044500004C093402CFA06F73B4387680CFA02FC31
:1044600027FA06F8C06807FA02F2F0404CEA080C96
:1044700042EA0006A3FB0132ACFB01C0A6FB0161CE
:1044800001EB0C068E4234BF4FF0010C4FF0000CD4
:10449000C1186144BCF1000F02D0814202D903E08F
:1044A000814201D2012000E00020104400F12002EE
:1044B0004FEA92188006CA0C40EA42304F03C5F812
:1044C0000080FFF7BEFC82463846FFF75EFF6FF0C4
:1044D0001201FFF74EFF07463046FFF756FF6FF019
:1044E0002501FFF746FF834639465046FFF700FB9C
:1044F0005946FFF7FDFA00F500666FF30B065146CB
:104500003046FFF747FB3946FFF744FB5946FFF7B4
:1045100044FB1049FFF744FB07460F493046FFF7BD
:104520003FFB3946FFF7E4FA07460C493046FFF7F0
:1045300037FB3946FFF7DCFA14F0004F08BFBDE83F
:10454000F08DC8F1805180F000402960BDE8F08D09
:10455000FC100000DB0FC92F22AAFD290000C92F83
:1045600002E008C8121F08C1002AFAD1704770473C
:10457000002001E001C1121F002AFBD1704700009A
:104580000149086070470000980000202DE9FF5F96
:1045900082B00021DDE90430020DDDF840B00343B4
:1045A00018D044F61050A2F2FF324243151411986D
:1045B00001281FD0A5EB0B00401C5FEA000A4FF05A
:1045C00000064E4FDFF83891B046504615D5CAF177
:1045D000000413E0119801244AA3012801D16FEAD5
:1045E0000B010298119AC0E90031C0E9024206B0FD
:1045F000BDE8F09FCBF10000DFE704460021404A10
:10460000491842EB0450CDE9001012E0E00707D052
:1046100032463B4640464946FFF732FB80468946D4
:1046200032463B4610461946FFF72AFB06460F4620
:104630006410002CEAD1DDE90401DDE90023BAF1C0
:10464000000F06DAFFF71CFB42464B46FFF718FB4C
:1046500005E0FFF787FB42464B46FFF783FB044626
:104660000E460022284BFFF729FE03D84FF0FF30FB
:10467000014607E00022254B20463146FFF745FD65
:10468000FFF703FE102409E0002C0ADB0A220023B6
:10469000FFF758FC039B30321A55641E50EA0102A2
:1046A000F2D1641C039AC4F111031444119A012A33
:1046B00003D0012208430DD10AE0084304D00020B2
:1046C0004FF0110B119072E7A3EB0B056D1E0DE07F
:1046D0005B4504DD4FF0000205F1010504E003DA5B
:1046E0004FF00002A5F10105002AECD002981199C3
:1046F000C0E90231C0E9004579E70000000014403C
:104700000000F03F300000000000F0430000E03FF8
:104710002DE9FF4F95B09B468946064600250FE2DE
:10472000252877D100242746F84A0121059400E086
:10473000044316F8013F203B01FA03F01042F7D181
:1047400030782A2811D06FF02F033078A0F1300292
:10475000092A16D8059A44F0020402EB820203EB00
:1047600042021044761C0590EFE759F8042B05929D
:10477000002A03DA504244F40054059044F0020445
:10478000761C30782E2816D116F8010F44F0040458
:104790002A280DD06FF02F023078A0F13003092BBA
:1047A00009D807EB870302EB4303C718761CF3E72E
:1047B00059F8047B761C30786C280FD006DC4C2826
:1047C00017D068280DD06A2814D104E0742810D0BE
:1047D0007A280FD10DE044F400140AE044F4801468
:1047E00001E044F440147278824202D104F580144E
:1047F000761C761C307866280BD013DC582877D0CE
:1048000009DC002875D04528F6D04628F4D0472882
:104810001AD19DE118E0632835D0642879D0652845
:1048200012D195E1702873D008DC6728F1D069288F
:104830006FD06E280DD06F2806D1B5E073282CD02C
:10484000752875D0782874D05A46179990476D1CF2
:1048500075E1C4F30250022809D003280DD0D9F81D
:10486000001004280DD00D6009F1040967E1D9F8A2
:104870000010EA17C1E90052F6E7D9F800100D80E0
:10488000F2E70D70F0E719F8041B8DF80010002016
:104890008DF80100EA46012003E059F804AB4FF01F
:1048A000FF3061074FF0000102D40DE008F1010173
:1048B0008846B9420FDA8045F8DB1AF8081000295B
:1048C000F4D108E008F1010188468142FADB1AF8C8
:1048D00008100029F6D105985B46A0EB0807214691
:1048E0003846179A00F094FA284400EB080507E0D0
:1048F0004DE029E10DE01AF8010B5A46179990474F
:10490000B8F10108F7D25B4621463846179A13E101
:1049100042E00A220092C4F302524FF0000A022A37
:1049200008D059F804CB032A4FEAEC710AD00DE005
:1049300029E02AE009F1070121F00702F2E802C1AB
:10494000914609E00FFA8CFC4FEAEC71042A03D17E
:104950004FFA8CFC4FEAEC71002907DA0A46002175
:10496000DCF1000C61EB02012D2202E0220504D5EE
:104970002B228DF80420012203E0E20701D020223F
:10498000F7E7904659E00A2102E010220DE01021DD
:104990004FF0000A00910BE010224FF0000A44F0A3
:1049A00004040827009203E008224FF0000A009256
:1049B000C4F30252022A05D059F804CB0021032A7D
:1049C00008D009E009F1070121F00702F2E802C16D
:1049D000914605E01FFA8CFC042A01D10CF0FF0C73
:1049E0004FF00008220728D5702806D0009B83F0DE
:1049F000100353EA0A0305D00EE040228DF804208C
:104A0000012208E05CEA010206D030228DF8042081
:104A10008DF8050002229046009B83F0080353EABC
:104A20000A030AD15CEA010201D1620705D53022EE
:104A30008DF804204FF001087F1E582804D034A0C0
:104A400003900EA802900DE036A0F9E753466046A9
:104A5000009AFFF777FA84460398825C0298401E1A
:104A6000029002705CEA0100F0D1029806A9081ACF
:104A700000F1200A600702D524F4803400E0012709
:104A8000574502DDA7EB0A0000E0002000EB0A0119
:104A9000009005984144401A0590E00306D45B4617
:104AA0002146179A059800F0B3F90544002706E05F
:104AB00001A85A46C05D179990476D1C7F1C474559
:104AC000F6DBE0030CD55B462146179A059800F00B
:104AD0009FF9054404E030205A46179990476D1C11
:104AE0000099481E00900029F5DC08E00298029920
:104AF0005A460078491C0291179990476D1CBAF1EB
:104B00000001AAF1010AF1DC65E1000009280100B9
:104B10003031323334353637383961626364656633
:104B200000000000303132333435363738394142F5
:104B3000434445460000000000F058F90544761C47
:104B4000307800287FF4ECAD19B02846BDE8F08F2E
:104B5000620700D4062709F1070222F0070CFCE8DF
:104B60000223E14603F000485FEA080C02D00FF28E
:104B7000702C0DE05FEA045C02D50FF2682C07E0B0
:104B80005FEAC47C02D00FF2602C01E0AFF2700C3F
:104B90004FF0FF3823F00043CDF850C065280CD00B
:104BA00006DC452809D046281DD047283DD13DE0E8
:104BB000662818D067287ED138E00021112F01DB4C
:104BC000112000E0781CCDE9000106A90EA8FFF72E
:104BD000DDFCDDE90F010E9A03910021009207F13F
:104BE000010A04914DE04FF000400097CDE901101B
:104BF00006A90EA8FFF7CAFCDDE90F0203920E9B7F
:104C000011990022DDF80CA00093049211B9791CCF
:104C100000EB010AB7EB0A0004D4C0F1FF3007F142
:104C2000010A0490AAEB0700019044E0012F00DA8A
:104C300001270021112F01DD112000E03846CDE9C8
:104C4000000106A90EA8FFF7A1FCDDE90F010E9AED
:104C50000391002104910092BA4621070CD40399D4
:104C6000514500DA8A46BAF1010F05DD009AAAF132
:104C70000101515C302908D0B84202DA10F1040F6A
:104C800006DA0121CDE9011015E0AAF10101E9E7F9
:104C9000002805DC049901440491AAEB000102E01C
:104CA000411C514500DD8A460499401A401C019080
:104CB0004FF000400290200704D40198504501DBDA
:104CC000CDF8048000208DF84F0002980DF14F07B9
:104CD000B0F1004F25D02B200E9002984FF0020823
:104CE00000280CDA404202902D200E9007E00A21A5
:104CF0000298FFF711F93031029007F8011DB8F161
:104D00000001A8F10108F2DC02980028EFD1791E19
:104D10000E980870307800F0200040F0450007F849
:104D2000020D12A8C01B00F107081498007800B10A
:104D3000012000EB0A01019801EBE0710598414464
:104D4000401A401E0590E00306D45B462146179AA0
:104D5000059800F05DF805441498007818B15A469B
:104D6000179990476D1CE00324D55B462146179A9E
:104D7000059800F04DF805441CE00498002807DB76
:104D8000DDE90301884203DD0098405C179901E0EA
:104D9000179930205A469047049805F10105401CA8
:104DA00004900198401E019004D12E205A46179974
:104DB00090476D1CBAF10001AAF1010ADDDC05E0A3
:104DC00017F8010B5A46179990476D1CB8F100016E
:104DD000A8F10108F4DC5B462146179A0598ABE67A
:104DE0002D0000002B000000200000002DE9F04104
:104DF000044600251E461746880404D405E03946BB
:104E00002020B0476D1C641EF9D52846BDE8F0810E
:104E10002DE9F041044600251E469046C80301D501
:104E2000302700E02027880404D505E041463846B5
:104E3000B0476D1C641EF9D52846BDE8F08100001E
:104E40002DE9F0474FF0684202EB40030C4605465F
:104E5000B3F1654F3CBF02EB4102B2F1654F7CD22A
:104E6000C0F3C753C1F3C7529A1A1B2A06DD10F0CC
:104E7000004F14BF76487748BDE8F08712F11A0F4B
:104E800017DA11F0004F06D010F0004F0CBF724837
:104E90007248BDE8F08721462846FEF7B3FE044677
:104EA000FFF788FA042808BFFFF7A0FA2046BDE8FC
:104EB000F0874200B2EB410F25D910F0004F19BF27
:104EC000674F684E684F694E224685F0004415468C
:104ED0000A4680F0004110460A1A5200B2F1807F63
:104EE00040D248406249DFF88CA110F0004F18D042
:104EF0004FF03F483846FEF74DFE074651463046D4
:104F0000FEF748FE17E011F0004F04BF00263746B9
:104F1000E2D010F0004F19BF574F584E584F594E1E
:104F2000DAE74FF07C583846FEF7E2FD0746514677
:104F30003046FEF7DDFD064641462846FEF730FEC8
:104F40002146FEF7D5FD824621464046FEF728FE63
:104F50002946FEF722FE514600E037E0FEF752FEFA
:104F6000044604E021462846FEF74CFE044601466E
:104F7000FEF716FE80464449FEF712FE4349FEF74F
:104F8000B7FD4146FEF70CFE4149FEF7B1FD414633
:104F9000FEF706FE3F49FEF7ABFD4146FEF700FE79
:104FA0003D49FEF7A5FD054641462046FEF7F8FDC2
:104FB0002946FEF7F5FD3146FEF79AFD2146FEF73C
:104FC00097FD3946BDE8F047FEF792BD4FF07F42AE
:104FD000B2EB400F28BFB2EB410F03D2BDE8F04760
:104FE000FFF7FEB940EA01035B0008BF44F0FF4150
:104FF0000AD0B2EB400F08BFB2EB410F06D125F04B
:10500000804024F0804105460C4629E7B2EB400F72
:1050100012BF5FEA410245F0FF4004F000413FF457
:105020001FAF4A0092EA40033FF51AAF002AACBF17
:105030004FF09F464FF03E563146FEF7B1FD054614
:1050400031462046FEF7ACFD04462846214607E7D8
:10505000DB0FC9BFDB0FC93FDB0F4940DB0F49C086
:105060000000C9BF22AAFDB90000C93F22AAFD392C
:105070000060ED3EC30ACE37000049C022AA7DBAC7
:105080000000494022AA7D3A2DAD65BD8FB8D53DBF
:105090000FB511BE61C84C3EA8AAAABE2DE9F041C9
:1050A000054604464FF00E4000EB4400B0F1145F9B
:1050B00076D24FF0FE40B0EB440F24BF00263746B7
:1050C0000CD214F0004F19BF454F464E464F474E85
:1050D00021464748FEF796FD054604464FF0FC4042
:1050E000B0EB440F2CD24349DFF80C8114F0004F91
:1050F0000AD04FF03F443846FEF74CFD0746414684
:105100003046FEF747FD09E04FF07C543846FEF785
:10511000EFFC074641463046FEF7EAFC06462146CC
:105120002846FEF73DFD4FF07E51FEF7E1FC80463C
:1051300021462846FEF72EFD4146FEF763FD054653
:1051400029460846FEF72CFD80462C49FEF728FD2F
:105150002B49FEF7CDFC4146FEF722FD2949FEF71B
:10516000C7FC4146FEF71CFD2749FEF7C1FC41463E
:10517000FEF716FD2549FEF7BBFC044641462846CE
:10518000FEF70EFD2146FEF70BFD3146FEF7B0FCA3
:105190002946FEF7ADFC3946BDE8F041FEF7A8BC54
:1051A0004FF0E440B0EB440F09D92846FFF702F96D
:1051B000042808BFFFF71AF92846BDE8F0814FF030
:1051C0007F40B0EB440F04D22046BDE8F041FFF72A
:1051D00004B914F0004F14BF0D480E48BDE8F0812B
:1051E0000000C9BF22AAFDB90000C93F22AAFD39AB
:1051F000000080BF0060ED3EC30ACE372DAD65BD17
:105200008FB8D53D0FB511BE61C84C3EA8AAAABE45
:10521000DB0FC9BFDB0FC93F2DE9F8430446024647
:105220004F486946B0EB420F09D94FF0E640B0EB6A
:10523000420F94BF00204FF0FF30009030E0494B08
:1052400022F00040834271D947492046FEF7A8FC6E
:10525000FEF7E0FE8046FEF7FFFF00F0030000903F
:1052600042494046FEF79CFC054641494046FEF750
:1052700097FC06463F494046FEF792FC07463E49EA
:105280004046FEF78DFC2146FEF787FC3946FEF7C7
:1052900081FC3146FEF77EFC2946FEF77BFC044686
:1052A0002546009C002C45DB294614F0010F0846DA
:1052B0001CD0FEF775FC06463049FEF771FC3049FC
:1052C000FEF76BFC3146FEF76BFC2E49FEF710FC37
:1052D0003146FEF765FC2946FEF762FC2946FEF7DB
:1052E00007FC14F0020F1CD0BDE8F883FEF758FC51
:1052F00005462549FEF754FC2449FEF7F9FB2946EB
:10530000FEF74EFC2249FEF7F3FB2946FEF748FC68
:105310004FF07E51FEF7ECFB14F0020F08BFBDE822
:10532000F88380F00040BDE8F883FFE71046FFF700
:1053300063F8B4E76800B0F17F4F3CBF4FF07E5098
:10534000BDE8F88307D14FF00100FFF719F9BDE878
:10535000F843FFF747B82846BDE8F843FFF73DB8E4
:10536000B61F927E490E494683F9223F1A61342CBA
:105370000020A23300A0FD390000C93F336D4C3935
:10538000DA82083CA0AA2ABEB93AB2BACA9F2A3D1C
:10539000DDFFFFBE2DE9F843044602465248694648
:1053A000B0EB420F09D94FF0E640B0EB420F94BF8B
:1053B00000204FF0FF30009030E04C4B22F00040D6
:1053C000834271D94A492046FEF7EAFBFEF722FEE6
:1053D0008046FEF741FF00F003000090454940463B
:1053E000FEF7DEFB054644494046FEF7D9FB06467C
:1053F00042494046FEF7D4FB074641494046FEF786
:10540000CFFB2146FEF7C9FB3946FEF7C3FB314609
:10541000FEF7C0FB2946FEF7BDFB04462546009C6F
:10542000002C45DB294614F0010F08461ED0FEF77C
:10543000B7FB05463349FEF7B3FB3349FEF758FB8C
:105440002946FEF7ADFB3149FEF752FB2946FEF730
:10545000A7FB4FF07E51FEF74BFB14F0020F08BF85
:10546000BDE8F88380F00040BDE8F883FEF798FBC4
:1054700006462749FEF794FB2649FEF78EFB314688
:10548000FEF78EFB2449FEF733FB3146FEF788FB1F
:105490002946FEF785FB2946FEF72AFB14F0020F8A
:1054A000E0D1BDE8F883FFE71046FEF7A5FFB4E7BB
:1054B0006800B0F17F4F09D22846FEF77BFF042831
:1054C00008BFFEF793FF2846BDE8F88306D1012008
:1054D000FFF756F8BDE8F843FEF784BF2846BDE85D
:1054E000F843FEF77ABF0000B61F927E490E494688
:1054F00083F9223F1A61342C0020A23300A0FD3929
:105500000000C93FB93AB2BACA9F2A3DDDFFFFBECB
:10551000336D4C39DA82083CA0AA2ABE716D63361D
:105520003330385F6765745F636869706964000071
:10553000000000006E83F9A22915444ED15727FCC4
:10554000C0DD34F5999562DB4190433CAB6351FE7D
:10555000BDD3CFC2C0B4BDF8D0D0B4C5C1A6BCC6FF
:105560005AD6E1D0A3D7BC2CC7EBD7AAB6AFC2DEC0
:10557000C5CC3930B6C82CD4D9B4CECBAEC6BDD08C
:10558000FDD7AAC2DEC5CCD2BBD6DCA1ADA1AD0A87
:1055900000000000B4550008000000209C0000003E
:1055A00060450008505600089C000020DC05000003
:1055B000704500080000000001020304010203041A
:1055C00006070809020406080000000000000000A9
:1055D00000000000000000000000000000000000CB
:1055E00000000000000000000000FF80A0B0C0002C
:1055F00000000000000000000000000000000000AB
:10560000000000000000000000000000000000009A
:10561000000000000000000000000000000000008A
:10562000000000000000000000000000000000007A
:105630000000000000A24A0400000000000000007A
:105640000102030406070809000000000000000032
:0400000508000131BD
:00000001FF
