:020000040800F2
:10000000880A0020513D0008BD220008BF220008D8
:10001000C3220008C7220008CB220008000000000D
:10002000000000000000000000000000CF220008D7
:10003000D122000800000000D3220008532300084A
:100040006B3D00086B3D00086B3D00086B3D0008F0
:100050006B3D00086B3D00086B3D00086B3D0008E0
:100060006B3D00086B3D0008912200086B3D0008C5
:100070006B3D00086B3D00086B3D00086B3D0008C0
:100080006B3D00086B3D00086B3D00086B3D0008B0
:100090006B3D00086B3D00086B3D00086B3D0008A0
:1000A0006B3D0008052A00086B3D00086B3D000809
:1000B0006B3D00086B3D00086B3D00086B3D000880
:1000C0006B3D00086B3D00086B3D00086B3D000870
:1000D0006B3D00086B3D00086B3D00086B3D000860
:1000E000A32200086B3D00086B3D00086B3D000833
:1000F0006B3D00086B3D00086B3D00086B3D000840
:100100006B3D00086B3D00086B3D00086B3D00082F
:100110006B3D00086B3D00086B3D00086B3D00081F
:100120006B3D00086B3D00086B3D00086B3D00080F
:10013000DFF80CD004F092F9004800471D220008B7
:10014000880A002031490143314A1160704770B577
:10015000002100230F22C47804B32D4C246804F43A
:10016000E064C4F5E064210AC1F10403CA404478A4
:1001700004FA03F18478144021430901254C0678E0
:10018000A155047804F01F050124AC4005786D11D9
:10019000AD0005F1E025C5F8004109E0047804F060
:1001A0001F050124AC401C4D0678761145F8264009
:1001B00070BD1A4A0A400243154B1B1F1A60704754
:1001C00039B1134A121D12680243114B1B1D1A60EC
:1001D00006E00F4A121D126882430D4B1B1D1A6068
:1001E0007047042808D14FF0E021096941F004016B
:1001F0004FF0E022116107E04FF0E021096921F0A2
:1002000004014FF0E0221161704700000000FA0580
:100210000CED00E000E400E080E100E080FFFF1F63
:10022000002044490860091D0860091D0860091D77
:10023000086041483F4914310860704700213D493A
:100240008279002A3AD00A46126803689A430B461C
:100250001A600A1D126803689A430B1D1A6002791E
:1002600011440A6803681A430A60324A0832126865
:1002700003689A432F4B08331A601A1D12680368EB
:100280009A432C4B0C331A604279102A0ED11A1F54
:10029000126803681A43274B08331A601A1D126844
:1002A00003681A43234B0C331A600DE0214942794D
:1002B00011440A6803681A430A6005E00279114490
:1002C0000A6803689A430A6070470021016001715F
:1002D0000C21417100218171704716491031096864
:1002E0000143144A10321160704701460020114A40
:1002F000143212680A400AB1012000E00020704761
:100300000C49143108607047014600200022094B57
:100310001B6803EA0102074B14331B680B4013B13F
:100320000AB1012000E00020704702491431086042
:100330007047000000040140FFFF0F00014600204D
:10034000FE4A106800F03800084310607047FB490F
:10035000096821F00801F94A116011460968014352
:1003600011607047F549096821F01001F34A1160E6
:1003700011460968014311607047F148EF49486030
:10038000F04848607047EE48EC494860ED484860E6
:100390007047EA48006940F08000E849086170470A
:1003A000E648006940F08000E44908617047042095
:1003B000E249C96801F0010109B101200EE0DF49FD
:1003C000C96801F0040109B1022007E0DB49C968EE
:1003D00001F0100109B1032000E00420704700B5CE
:1003E00002460423FFF7E3FF034603E0FFF7DFFFC6
:1003F0000346521E012B01D1002AF7D102B9052371
:10040000184600BD30B5044604254FF43020FFF7F0
:10041000E6FF0546042D17D1C848006940F00200E8
:10042000C649086108464461006940F0400008611F
:100430004FF43020FFF7D3FF0546C048006941F66E
:10044000FD710840BD490861284630BD10B504243F
:100450004FF43020FFF7C3FF0446042C16D1B748F1
:10046000006940F00400B54908610846006940F0A1
:10047000400008614FF43020FFF7B1FF0446AF4859
:10048000006941F6FB710840AC490861204610BD87
:1004900000B502460423FFF78AFF034603E0FFF797
:1004A00086FF0346521E012B01D1002AF7D102B963
:1004B0000523184600BD10B504244FF43020FFF783
:1004C000E7FF0446042C16D19C48006940F0040064
:1004D0009A4908610846006940F0400008614FF4FD
:1004E0003020FFF7D5FF04469448006941F6FB71C0
:1004F000084092490861204610BD00208F49C96913
:1005000001F0020109B1012000E00020704730B580
:10051000A5250424FFF7F1FF00B100254FF430209A
:10052000FFF75DFF0446042C3AD185488349886073
:10053000844888600846006940F020000861084649
:10054000006940F0400008614FF43020FFF747FF9A
:100550000446042C1BD17948006941F6DF7108403C
:10056000764908610846006940F010000861764845
:100570000580E002FFF733FF0446052C10D06F48DA
:10058000006941F6EF7108406C49086108E0052CEC
:1005900006D06A48006941F6EF7108406749086172
:1005A000204630BD78B506460C4604250020009054
:1005B000E802FFF714FF0546042D24D15F480069C7
:1005C00040F001005D4908613480E802FFF707FF51
:1005D0000546042D10D1B01C0090200C0099088015
:1005E000E802FFF7FCFE05465448006941F6FE713B
:1005F00008405249086106E05048006941F6FE7122
:1006000008404E490861284678BD70B504460D463D
:100610000426F002FFF7E3FE0646042E11D14748F8
:10062000006940F00100454908612580F002FFF7AC
:10063000D6FE06464148006941F6FE7108403F4932
:100640000861304670BD70B505460E460424E002D0
:10065000FFF7C5FE0446042C17D139483749886096
:10066000384888600846006940F0100008612E8014
:10067000E002FFF7B4FE0446052C06D02F480069BF
:1006800041F6EF7108402D490861204670BD2DE903
:10069000F04304464FF6FF763746B046B146042590
:1006A000E443E6B2C4F30727C4F307484FEA1469EA
:1006B000E802FFF794FE0546042D49D120481F4962
:1006C0008860204888600846006940F01000086192
:1006D000FF2E06D01C4808300680E802FFF77FFE98
:1006E0000546042D08D1FF2F06D017480A30078091
:1006F000E802FFF774FE0546042D0AD1B8F1FF0F9A
:1007000007D011480C30A0F80080E802FFF767FE20
:100710000546042D0AD1B9F1FF0F07D00A480E3063
:10072000A0F80090E802FFF75AFE0546052D0FD00D
:100730000248006941F6EF71084007E000200240DE
:1007400023016745AB89EFCD00F8FF1F66490861BB
:100750002846BDE8F08330B5054604244FF4302028
:10076000FFF73DFE0446042C41D160485E49886095
:100770005F4888600846006940F02000086108462C
:10078000006940F0400008614FF43020FFF727FE79
:100790000446042C22D15448006941F6DF71084018
:1007A000514908610846006940F0100008611DB118
:1007B00000205049088002E0A5204E4908804FF4EF
:1007C0003020FFF70CFE0446052C10D04648006987
:1007D00041F6EF7108404449086108E0052C06D055
:1007E0004148006941F6DF7108403F4908612046F1
:1007F00030BDF0B505460E46174604243B483A493D
:1008000088603B488860E002FFF7E9FD0446042C5D
:1008100019D13548006940F010003349086147F0AC
:10082000F800304328433349891C0880E002FFF771
:10083000D6FD0446052C06D02B48006941F6EF7121
:100840000840294908612046F0BD2748C069800852
:1008500070472548006A704700202349096801F065
:10086000200109B1012000E00020704729B11E4A93
:10087000126902431C4B1A6104E01B4A126982434D
:10088000194B1A61704701460020012908D1164A08
:10089000D26902F001020AB1012008E0002006E05E
:1008A000114AD2680A400AB1012000E000207047D6
:1008B0000D49C860704704200B49C96801F0010167
:1008C00009B101200EE00849C96801F0040109B12D
:1008D000022007E00449C96801F0100109B10320B2
:1008E00000E004207047000000200240230167451B
:1008F000AB89EFCD00F8FF1F10B50446CC48844209
:1009000008D10121042000F02DFB0021042000F07B
:1009100029FB46E0C748844208D10121082000F0A5
:1009200021FB0021082000F01DFB3AE0C248844270
:1009300008D10121102000F015FB0021102000F04B
:1009400011FB2EE0BD48844208D10121202000F097
:1009500009FB0021202000F005FB22E0B84884427A
:1009600008D10121402000F0FDFA0021402000F0D4
:10097000F9FA16E0B348844208D10121802000F042
:10098000F1FA0021802000F0EDFA0AE0AE4884423E
:1009900007D10121801500F0E5FA0021A01500F033
:1009A000E1FA10BD10B50121084600F0DBFA002184
:1009B000012000F0D7FA10BD2DE9F04102460025D4
:1009C0000026002000230024002791F803C00CF02B
:1009D0000F0591F803C00CF0100CBCF1000F03D010
:1009E00091F802C04CEA050591F800C0BCF1000F77
:1009F00031D0146800202BE04FF0010C0CFA00F30A
:100A0000B1F800C00CEA03069E4220D183004FF0EB
:100A10000F0C0CFA03F7BC4305FA03FC4CEA040480
:100A200091F803C0BCF1280F06D14FF0010C0CFA6D
:100A300000FCC2F814C00AE091F803C0BCF1480FF2
:100A400005D14FF0010C0CFA00FCC2F810C0401C9C
:100A50000828D1D31460B1F800C0BCF1FF0F34DD19
:100A6000546800202EE000F1080C4FF0010808FA4D
:100A70000CF3B1F800C00CEA03069E4221D18300BA
:100A80004FF00F0C0CFA03F7BC4305FA03FC4CEAD9
:100A9000040491F803C0BCF1280F05D100F1080C43
:100AA00008FA0CF8C2F8148091F803C0BCF1480FA2
:100AB00007D100F1080C4FF0010808FA0CF8C2F851
:100AC0001080401C0828CED35460BDE8F0814FF65A
:100AD000FF710180022181700421C17070470246BC
:100AE000002093680B400BB1012000E0002070470C
:100AF0000146886880B2704702460020D3680B40E8
:100B00000BB1012000E0002070470146C86880B2A8
:100B1000704701617047416170470AB1016100E0AF
:100B200041617047C16070474FF480320A4382616F
:100B30008161826182698269704702460020434B6D
:100B400018684FF68073184040EA021008433F4B84
:100B5000186070473E49C8617047F0B50A460023E7
:100B600000240021002500F00046B6F1004F02D11C
:100B7000364EF16901E0354E7168C0F3034583B22A
:100B800000F44016B6F5401F08D121F070612F4ED9
:100B9000766826F070662D4F7E6012E000F48016B5
:100BA000B6F5801F06D1032606FA05F4A14341F0ED
:100BB000706106E0460D360103FA06F6B14341F0D6
:100BC000706122B1460D360103FA06F6314300F09A
:100BD0000046B6F1004F02D11C4EF16101E01B4E00
:100BE0007160F0BD30B500228B071C0F0F2303FA94
:100BF00004F2164B08338C1053F824309343134CF3
:100C000008348D1044F8253023468C1053F82430D6
:100C10008C07240F00FA04F423430C4C08348D1085
:100C200044F8253030BD0A49DC31086070470000C7
:100C300000080140000C0140001001400014014078
:100C400000180140001C014000200140000001404C
:100C500000002042DF48006840F00100DD490860E4
:100C600008464068DC490840DA49486008460068A0
:100C7000DA490840D74908600846006820F4802017
:100C800008600846406820F4FE0048604FF41F00EA
:100C900088607047CF49096821F48031CD4A1160DE
:100CA0001146096821F480211160B0F5803F03D01E
:100CB000B0F5802F0ED106E0C649096841F48031B5
:100CC000C44A116007E0C349096841F4A021C14A40
:100CD000116000E000BF00BF704710B50146002260
:100CE000002300204A11012A02D1BA4C236806E0F1
:100CF000022A02D1B74C236A01E0B64C636A01F0C4
:100D00001F02012494401C400CB1012000E000208F
:100D100010BD38B5002000900024002500BF312010
:100D2000FFF7DBFF05460098401C00900098B0F5E7
:100D3000A06F01D0002DF2D03120FFF7CEFF08B117
:100D4000012400E00024204638BD01460020A14ACD
:100D5000106820F0F80040EAC10010607047A04918
:100D600008607047024600209A4B586820F47C10B7
:100D700042EA01031843974B586070479849086648
:100D8000704701460020934A506820F00300084352
:100D9000506070478F48406800F00C007047014673
:100DA00000208C4A506820F0F000084350607047E3
:100DB00001460020874A506820F4E06008435060F4
:100DC000704701460020834A506820F4605040EA92
:100DD000C1005060704729B17E4A527A02437D4B70
:100DE0005A7204E07B4A527A82437A4B5A727047B5
:100DF0007B49D8310860704701460020754A506829
:100E000020F440400843506070470021714A20326E
:100E10001170704A82F82010012802D004280AD1EB
:100E200004E001216B4A2032117005E00521694A76
:100E30002032117000E000BF00BF704769490860B0
:100E400070476449096A0143624A11627047654903
:100E500044390860704730B5002100220024002387
:100E60005C4D6D6805F00C0121B1042905D00829FD
:100E700023D105E05C4D056022E05B4D05601FE07D
:100E8000544D6D6805F47012524D6D6805F4803450
:100E9000022505EB92421CB9544D554305600BE009
:100EA0004C4D6D6805F400351DB1504D554305603E
:100EB00002E04D4D5543056002E04B4D056000BF1B
:100EC00000BF444D6D6805F0F0010909484D6B5CA9
:100ED0000568DD4045603F4D6D6805F4E061090A35
:100EE000434D6B5C4568DD4085603A4D6D6805F4A7
:100EF0006051C90A3E4D6B5C4568DD40C560354DAB
:100F00006D6805F44041890B3A4D6B5CC568B5FBD3
:100F1000F3F5056130BD29B12E4A526902432D4BCC
:100F20005A6104E02B4A526982432A4B5A61704746
:100F300029B1284A92690243264B9A6104E0254A66
:100F400092698243234B9A61704729B1214AD26941
:100F50000243204BDA6104E01E4AD26982431D4BF2
:100F6000DA61704729B11B4AD2680243194BDA6033
:100F700004E0184AD2688243164BDA60704729B100
:100F8000144A12690243134B1A6104E0114A1269B0
:100F90008243104B1A61704712494039086070470C
:100FA0000F49C86470470B49C87170470948406AC7
:100FB00040F0807007494862704701460020054AAA
:100FC00092680A400AB1012000E000207047014900
:100FD00088727047001002400000FFF8FFFFF6FE25
:100FE000000042428004424200127A0000093D00A3
:100FF000000000201000002010B50446FE48844286
:1010000008D10121C014FFF7ADFF0021E014FFF764
:10101000A9FFC4E0B4F1804F08D101210846FFF7D1
:10102000AEFF00210120FFF7AAFFB8E0F348844299
:1010300008D101210220FFF7A2FF00210220FFF7C3
:101040009EFFACE0EE48844208D101210420FFF766
:1010500096FF00210420FFF792FFA0E0E9488442B8
:1010600008D101210820FFF78AFF00210820FFF79F
:1010700086FF94E0E448844208D101211020FFF764
:101080007EFF00211020FFF77AFF88E0DF488442CE
:1010900008D101212020FFF772FF00212020FFF757
:1010A0006EFF7CE0DA48844208D101214014FFF74A
:1010B00059FF00216014FFF755FF70E0D5488442C6
:1010C00009D10121C804FFF74DFF00214FF4002092
:1010D000FFF748FF63E0D048844209D101210805A9
:1010E000FFF740FF00214FF48010FFF73BFF56E071
:1010F000CA48844209D101214805FFF733FF002186
:101100004FF40010FFF72EFF49E0C548844208D194
:1011100001214020FFF733FF00214020FFF72FFF80
:101120003DE0C048844208D101218020FFF727FF1D
:1011300000218020FFF723FF31E0BB48844208D123
:1011400001218015FFF71BFF0021A015FFF717FFF6
:1011500025E0B648844209D101210804FFF702FFC7
:1011600000214FF48030FFF7FDFE18E0B0488442C4
:1011700009D101214804FFF7F5FE00214FF40030AA
:10118000FFF7F0FE0BE0AB48844208D10121880450
:10119000FFF7E8FE00214FF48020FFF7E3FE10BDCB
:1011A00000220288944B98420ED0994B98420BD063
:1011B000B0F1804F08D0914B984205D0904B9842A7
:1011C00002D0904B984204D14FF68F731A404B884F
:1011D0001A438D4B984207D08C4B984204D04FF65F
:1011E000FF431A40CB881A4302808B8883850B8883
:1011F0000385814B98420BD0854B984208D08B4B8E
:10120000984205D08A4B984202D08A4B984201D12D
:101210000B7A038601238382704770B50024002275
:101220000023058C4FF6FE7635400584028C8388BA
:10123000048B4FF68F752C40B51E2C400D882C4327
:10124000751E2A400D892A434D882A436A4DA842BB
:101250000BD06F4DA84208D0744DA84205D0744DF4
:10126000A84202D0734DA84213D14FF6F7752A4019
:101270004D892A434FF6FB752A408D882A434FF645
:10128000FF652B404FF6FF552B408D892B43CD89B1
:101290002B4383800483CD888586028470BD70B51E
:1012A000002400220023058C4FF6EF76354005849C
:1012B000028C8388048B48F6FF752C404FF6FF455F
:1012C0002C400D884FF6FF7606EA05252C434FF695
:1012D000DF752A400D8906EA05152A434D8806EA7E
:1012E00005152A43444DA84202D0494DA8421DD1BC
:1012F0004FF67F752A404D894FF6FF7606EA0515B1
:101300002A434FF6BF752A408D8806EA05152A4301
:101310004FF6FF352B404FF2FF752B408D8906EAC3
:1013200085052B43CD8906EA85052B4383800483FD
:10133000CD880587028470BD70B50024002200238B
:10134000058C4FF6FF6635400584028C8388848BBC
:101350004FF68F752C404FF6FC752C400D882C43B2
:101360004FF6FF552A400D894FF6FF7606EA052510
:101370002A434D8806EA05252A431F4DA84202D07C
:10138000234DA8421DD14FF2FF752A404D894FF6DB
:10139000FF7606EA05252A434FF6FF352A408D8859
:1013A00006EA05252A434EF6FF752B404DF6FF75DC
:1013B0002B408D8906EA05152B43CD8906EA0515D4
:1013C0002B4383808483CD888587028470BD70B56C
:1013D000002200230024058C4EF6FF76354005845C
:1013E000038C8488828B48F6FF752A404FF6FF45B0
:1013F0002A400D8820E00000002C0140000400403D
:1014000000080040000C00400010004000140040A4
:1014100000340140004C01400050014000540140A4
:1014200000180040001C0040002000400040014027
:1014300000440140004801404FF6FF7606EA0525CA
:101440002A434DF6FF752B400D8906EA05352B43DF
:101450004D8806EA05352B43FA4DA84202D0FA4DD5
:10146000A84208D14BF6FF752C408D894FF6FF76C8
:1014700006EA85152C4384808283CD88A0F84050ED
:10148000038470BD828B4FF2FF331A408283828BBC
:101490004FF6FF7303EA01231A4382837047F0B5C6
:1014A0000C461546002200210026078C4EF6FF7CD4
:1014B00007EA0C070784828B018C4FF6FF7707EA57
:1014C000043640F6FF473A404FF6FF7707EA052714
:1014D0003A434FF6FF7707EA03373A43D94FB8420A
:1014E0000ED0D94FB8420BD0B0F1804F08D0D74FB3
:1014F000B84205D0D64FB84202D0D64FB84206D136
:101500004DF6FF77394046F48057394305E047F6FA
:10151000FF57394044F48057394382830184F0BD3A
:10152000828B4FF6F3731A408283828B0A43828345
:101530007047F0B50C461546002200210026078CA6
:101540004FF6FF6C07EA0C070784828B018C4FF67D
:10155000FF7707EA04264FF60C773A404FF6FF77FD
:1015600007EA03172F433A43B64FB8420ED0B64F9F
:10157000B8420BD0B0F1804F08D0B44FB84205D07C
:10158000B34FB84202D0B34FB84206D14FF6FF571F
:10159000394046F48077394305E04FF2FF57394030
:1015A00044F48077394382830184F0BD028B4FF28B
:1015B000FF331A400283028B4FF6FF7303EA0123C5
:1015C0001A4302837047F0B50C46154600220021ED
:1015D0000026078C4FF6EF7C07EA0C070784028B86
:1015E000018C4FF6FF7707EA041640F6FF473A40B2
:1015F0004FF6FF7707EA03373A434FF6FF7707EADC
:1016000005273A438F4FB8420ED08F4FB8420BD0C8
:10161000B0F1804F08D08D4FB84205D08C4FB84202
:1016200002D08C4FB84206D14FF6DF77394046F0F2
:101630001007394305E04FF65F77394044F0100753
:10164000394302830184F0BD028B4FF6F3731A40D5
:101650000283028B0A4302837047F0B50C4615469D
:1016600000220021068C4FF6FE773E400684028B56
:10167000018C4FF60C7632407E1C06EA03162E4390
:101680003243704EB0420ED06F4EB0420BD0B0F12C
:10169000804F08D06D4EB04205D06D4EB04202D0A2
:1016A0006C4EB04206D14FF6FD76314044F0010653
:1016B000314305E04FF6F576314044F00106314301
:1016C00002830184F0BD70B505460C465D48854235
:1016D0000ED05D4885420BD0B5F1804F08D05B48F5
:1016E000854205D05A48854202D05A48854200D1E9
:1016F00000E000BF208850B92389A288618828466D
:10170000FFF7ABFFE1882846FFF79EFF25E0208822
:1017100004280AD12389A28861882846FFF753FF4D
:10172000E1882846FFF742FF17E0208808280AD101
:101730002389A28861882846FFF7FBFEE1882846B6
:10174000FFF7EEFE09E02389A28861882846FFF7AB
:10175000A6FEE1882846FFF795FE70BD2DE9F04111
:1017600005460C4600260127608808B9022600E0DD
:101770000026A088012801D1022700E00127208847
:10178000A0B92389A28861882846FFF766FFE1880F
:101790002846FFF759FF23893A4631462846FFF786
:1017A00012FFE1882846FFF701FF13E02389A28892
:1017B00061882846FFF707FFE1882846FFF7F6FE15
:1017C00023893A4631462846FFF747FFE1882846F5
:1017D000FFF73AFFBDE8F0810A884B881A438B88EF
:1017E0001A43CB881A430B891A434B891A438B89B6
:1017F0001A43A0F8442070474FF6FF718180002102
:101800000180C180418001727047002101804180C8
:101810008180C180018141818181C1817047002126
:1018200001804180012181800021C18001817047B8
:101830000021018041808180C180018141818181BD
:1018400070470000002C01400034014000040040BB
:1018500000080040000C004021B1028842F0010263
:10186000028004E002884FF6FE731A40028070473F
:1018700031B1B0F8442042F40042A0F8442005E021
:10188000B0F84420C2F30E02A0F8442070471AB109
:1018900083890B43838102E083898B438381704773
:1018A0008182704741EA0203A0F8483070471AB1BC
:1018B00083890B43838102E083898B438381704753
:1018C00001894FF6F8721140018170470A460021E4
:1018D00001894FF68F73194011430181704730B56C
:1018E00004460D4629462046FFF7F0FF208940F0C8
:1018F0000700208130BD2DE9F04104460D46164613
:101900001F46602D06D13B46012231462046FFF797
:101910005AFE05E03B46012231462046FFF79DFE78
:1019200029462046FFF7D2FF208940F0070020819A
:10193000BDE8F08130B50C4600210189C9B24FF6EF
:10194000FF7505EA0325154325432943018130BD71
:101950002DE9F04105460E461746984600244346B9
:101960003A4631462846FFF7E5FF2C894FF6F870D6
:10197000044044F007044FF68F70044044F07004B4
:101980002C81BDE8F081F0B504460D4616461F4691
:101990003B46324629462046FFF7CCFF208940F4DB
:1019A00080402081F0BD0185828270470A46002177
:1019B00001884FF68F731940114301807047F0B5CD
:1019C0000C4615461E460021002200230189028B89
:1019D000038C4FF6F877394021434FF6FC473A40E5
:1019E00040F201173A434FF6DD773B404FF6FF7761
:1019F00007EA06172F433B43018102830384F0BDAE
:101A00000A460021018B4FF68F7319401143018361
:101A100070470A460021018B48F6FF7319404FF6C4
:101A2000FF7303EA02231943018370470A4600212A
:101A3000818B4FF68F7319401143818370470A469B
:101A40000021818B48F6FF7319404FF6FF7303EABC
:101A5000022319438183704721B1028842F080023A
:101A6000028004E002884FF67F731A4002807047BC
:101A700021B1828842F00402828004E082884FF61D
:101A8000FB731A408280704721B1828842F00802BD
:101A9000828004E082884FF6F7731A408280704794
:101AA00021B1828842F00102828004E082884FF6F0
:101AB000FE731A40828070470A460021018B4FF660
:101AC000F77319401143018370470A460021018BC7
:101AD0004FF2FF7319404FF6FF7303EA02231943D5
:101AE000018370470A460021818B4FF6F773194036
:101AF0001143818370470A460021818B4FF2FF73A7
:101B000019404FF6FF7303EA02231943818370479C
:101B10000A460021018B4FF6FB73194011430183E4
:101B200070470A460021018B4FF6FF3319404FF6EC
:101B3000FF7303EA02231943018370470A46002119
:101B4000818B4FF6FB7319401143818370470A461E
:101B50000021818B4FF6FF3319404FF6FF7303EAE4
:101B600002231943818370470A460021018B4FF6F7
:101B70007F7319401143018370470A460021018B8E
:101B8000C1F30E014FF6FF7303EA022319430183E9
:101B900070470A460021818B4FF67F73194011432D
:101BA000818370470A460021818BC1F30E014FF6F5
:101BB000FF7303EA02231943818370470A46002119
:101BC000018C4FF6FD7319401143018470470A469A
:101BD0000021018C4FF6F7731940114301847047BF
:101BE0000A460021018C4FF6DF7319404FF6FF7350
:101BF00003EA02131943018470470A460021018C4D
:101C00004FF67F7319404FF6FF7303EA021319432F
:101C1000018470470A460021018C4FF6FF5319409A
:101C20004FF6FF7303EA02231943018470470A4603
:101C30000021018C4FF2FF7319404FF6FF7303EA46
:101C400002231943018470470A460021018C4DF696
:101C5000FF7319404FF6FF7303EA023319430184FF
:101C6000704730B5002301248C40A3B2048C9C4300
:101C70000484048C02FA01F5ADB22C43048430BD17
:101C800030B5002304248C40A3B2048C9C4304840C
:101C9000048C02FA01F5ADB22C43048430BD70B55A
:101CA0000346002000241846183001258D40ACB2B0
:101CB0001D8CA5431D8409B1082909D100EB6100E1
:101CC000056825F0700505600568154305600EE0A0
:101CD0000D1FC5F34E052844056825F4E045056051
:101CE00005684FF6FF7606EA02263543056070BDAB
:101CF00021B1028842F00202028004E002884FF61D
:101D0000FD731A400280704721B1028842F004023C
:101D1000028004E002884FF6FB731A40028070478D
:101D200021B1828842F08002828004E082884FF6EE
:101D30007F731A408280704702884FF6F7731A400B
:101D4000028002880A430280704782884FF68F73B0
:101D50001A40828082880A438280704702894FF647
:101D6000F8731A40028102890A430281704702898E
:101D70004FF67F731A40028102890A43028170473D
:101D800081847047818570478186704701877047DD
:101D900081877047A0F84010704702884FF6FF43D4
:101DA0001A40028002880A43028070470146888EEA
:101DB00070470146088F70470146888F704701467B
:101DC000B1F8400070470146888C70470146088D85
:101DD000704702460020138A0B400BB1012000E03F
:101DE00000207047CA430282704730B50246002087
:101DF00000230024158A05EA0103958905EA0104F8
:101E000013B10CB1012000E0002030BDCA430282B2
:101E10007047000010B50446FB48844209D10121F7
:101E20008803FFF79FF800214FF48040FFF79AF8EE
:101E300032E0F648844209D101214804FFF79FF8B7
:101E400000214FF40030FFF79AF825E0F048844273
:101E500009D101218804FFF792F800214FF4802076
:101E6000FFF78DF818E0EB48844209D10121C8043E
:101E7000FFF785F800214FF40020FFF780F80BE012
:101E8000E548844208D101210805FFF778F80021D0
:101E90004FF48010FFF773F810BD2DE9F04786B0BE
:101EA00005460E460024A24600BFA1460027B08981
:101EB00000B100BF2F462C8A4CF6FF700440F0881A
:101EC00004432C82AC894EF6F3100440B08831896B
:101ED0000843718908430443AC81AC8A4FF6FF4044
:101EE0000440B0890443AC8201A8FEF7B4FFC648A1
:101EF000874202D1DDF810A001E0DDF80CA0A8892E
:101F000000F4004040B10AEBCA0000EB0A1031684F
:101F10004900B0FBF1F807E00AEBCA0000EB0A1039
:101F200031688900B0FBF1F86420B8FBF0F00401DF
:101F30002009642101FB1089A88900F4004040B108
:101F4000322000EBC900B0FBF1F000F007000443C1
:101F500008E0322000EB09106421B0FBF1F000F042
:101F60000F0004432C8106B0BDE8F0874FF41651F2
:101F7000016000218180C18001810C21418100210B
:101F80008181704710B502460020108A4FF2FF038E
:101F900018400B884C8823438C882343CC882343E8
:101FA0001843108210BD0021018041808180C180D2
:101FB000704721B1828942F40052828104E0828913
:101FC0004DF6FF731A4082817047F0B50346002436
:101FD00000260025002040F66A17B94200D100BF54
:101FE0001846C1F3421401F01F06012707FA06F54F
:101FF000012C01D10C3004E0022C01D1103000E0A2
:1020000014301AB107682F43076002E00768AF4336
:102010000760F0BD1AB1838A0B43838202E0838A92
:102020008B4383827047028A4FF6F0731A40028214
:10203000028A0A430282704782894FF2FF731A4074
:10204000828182890A438281704721B1828942F06C
:102050000202828104E082894FF6FD731A40828178
:102060007047028A4FF6DF731A400282028A0A43DF
:102070000282704721B1028A42F48042028204E067
:10208000028A4BF6FF731A4002827047C1F30802BE
:102090008280704701468888C0F3080070478189B4
:1020A00041F0010181817047028BD2B20283028B21
:1020B00042EA012202837047028B02F47F420283CC
:1020C000028B0A430283704721B1828A42F02002C8
:1020D000828204E0828A4FF6DF731A408282704760
:1020E00021B1828A42F01002828204E0828A4FF695
:1020F000EF731A408282704721B1828A42F008024F
:10210000828204E0828A4FF6F7731A408282704717
:1021100021B1828942F40042828103E08289C2F3C4
:102120000E028281704721B1828A42F4006282826B
:1021300004E0828A4FF2FF731A4082827047828ADB
:102140004FF6FB731A408282828A0A43828270476A
:1021500021B1828A42F00202828204E0828A4FF632
:10216000FD731A408282704702460020B1F5007F5D
:1021700000D100BF13880B400BB1012000E000200C
:10218000704701F40072B2F5007F00D100BFCA436E
:102190000280704770B5024600240023002500200D
:1021A00040F66A16B14200D100BFC1F3421501F0FA
:1021B0001F03012606FA03F3012D02D1968933404D
:1021C00006E0022D02D1168A334001E0968A3340A0
:1021D0000C12012606FA04F41688344013B10CB12F
:1021E000012000E0002070BD10B50022002340F661
:1021F0006A14A14200D100BF0A1201249440A3B284
:10220000DC43048010BD0000003801400044004061
:1022100000480040004C00400050004000F04CFCE2
:1022200001F069F901F067F901F065F901F063F96E
:1022300001F061F901F05FF901F05DF901F094F846
:1022400001211048FFF708FB00F0E3FA002400BF6B
:1022500005E001F015FA00F0DBFF601CC4B2642C4D
:10226000F7DB0EE00848007810B101F0F5FA08E05D
:1022700006480088032804DD00F0BEF90020034969
:102280000880EFE7002C01407C000020380000208F
:1022900010B51020FEF738F810B11020FEF745F801
:1022A00010BD10B54FF40050FEF72EF828B14FF4D2
:1022B0000050FEF73AF801F0CFFA10BD704700BFAA
:1022C000FEE700BFFEE700BFFEE700BFFEE7704786
:1022D0007047704710B52248FEF7BDFD20480068E2
:1022E0002049B0FBF1F02049086001F0D7FC10BD97
:1022F00000BF1E4801684FF0E02082691B4800685B
:102300008142F6D11848006800EB4003C3EBC010CF
:10231000C2EBC000144B1B68B0FBF3F001EB4103B0
:10232000C3EBC11300EBC30070471048006870474F
:1023300030B50446FFF7DCFF054600BFFFF7D8FFC6
:10234000401B04EB4401C1EBC411B0EBC10FF5D34A
:1023500030BD06480068401C044908607047000012
:10236000A000002040420F001400002018000020B0
:102370002DE9F04704464FF07C51204601F052FD14
:1023800080462546A148A0EB65052C4641462046DF
:1023900001F048FD8146214601F044FD07464FF01B
:1023A0007F5101F03CFD0646214601F03BFD04460D
:1023B0002046BDE8F0872DE9F84F954A1168954A07
:1023C000106801F029FD94490860914A5168914ACA
:1023D000506801F021FD80F000408F4948608C4A30
:1023E00091688C4A906801F017FD80F000408A499E
:1023F000886088684FF0804102F08AFD83468649F4
:1024000048684FF0804102F083FD5946009001F08A
:10241000B1FC824603F050F981467F49086849467D
:1024200002F08AFB044601F075FE07464FF0663263
:102430007A4B01F067FD054601F07FFE7849886020
:10244000754988684FF0804102F062FD8346724909
:1024500008684FF0804102F05BFD5946009001F0A2
:1024600089FC824603F028F981466B494868494651
:1024700002F062FB044601F04DFE07464FF0663263
:10248000684B01F03FFD054601F057FE64490860C6
:10249000086803F04DF8644908606149086802F073
:1024A00079FC624908605E49886803F041F8604938
:1024B00008605B49886802F06DFC5E490860BDE811
:1024C000F88F2DE9F0415C4A11685C4A106801F010
:1024D000A3FC5B490860584A5168584A506801F0AB
:1024E0009BFC57494860544A9168544A906801F0EF
:1024F00093FC80F00040524988600A461168506899
:1025000002F01AFB804601F005FE06464D4A454B97
:10251000833B01F0F7FC044601F00FFE4A490860D6
:1025200000214948006801F025FE06D24749464887
:10253000006801F01FFC44490860414988683C4933
:10254000096801F06FFC04463D494868394909684B
:1025500001F068FC0546214601F00CFC3C4908608E
:10256000374988683349096801F05CFC06462E4803
:102570000168304601F056FC0446314908682B4991
:10258000096801F04FFC07462D494868264909684B
:1025900001F048FC804626480168404601F042FCB4
:1025A0000646394601F0E6FB0546214601F034FCBB
:1025B00028490860084601682548006802F0BCFA0E
:1025C000804601F0A7FD06461E4A164B833B01F0EC
:1025D00099FC044601F0B1FD1149486048680021AA
:1025E00001F0C8FD06D20E494868184901F0C2FB47
:1025F0000B494860BDE8F08110B501F041F800F0EA
:1026000007FEFFF7D8FEFFF75CFF10BDDF59375F0D
:10261000D8000020EC010020C000002066A64CC0BD
:10262000B400002066A64C401C00002020000020C2
:102630002400002028000020E400002020010020C9
:10264000CC000020D9CEF753340000200000B44362
:10265000300000202C0000202DE9F041002400264D
:102660000027002500BF19E001F00AF88148016841
:10267000304601F07FFB06467E484168384601F04F
:1026800079FB07467B4988684FF08A4101F0C4FB1B
:102690008046294601F06EFB0546641C642CE3DB92
:1026A0007549304601F0F0FB7449086072493846BC
:1026B00001F0EAFB714948606F49284601F0E4FBEC
:1026C0006E498860BDE8F08110B500F0A1FD6C4A4C
:1026D00011686C4A106801F057FD03D26948006820
:1026E00067490860684A1168664A106801F042FD4F
:1026F00003D26448006864490860614A5168614ACD
:10270000506801F041FD03D25E4840685C49486072
:102710005D4A11685B4A106801F02CFD03D25948EC
:10272000406859494860584A1168554A106801F094
:1027300021FB04464FF0804101F0A6FB534908609D
:10274000514A51684E4A506801F014FB04464FF05C
:10275000804101F099FB4D49486010BD10B500F073
:1027600057FD474A9168474A906801F00DFD03D232
:102770004448006842498860434A9168414A9068E9
:1027800001F0F8FC03D23F4880683F4988603E4A28
:1027900091683B4A906801F0EDFA04464FF08041A1
:1027A00001F072FB3949886010BD00B587B033482D
:1027B0000068069031484068059030488068049071
:1027C0003248006803903148406802902F48806882
:1027D0000190022206A92E4801F04FF9022205A914
:1027E0002C4801F04AF9022204A92B4801F045F9CE
:1027F000022203A9294801F040F9022202A928482F
:1028000001F03BF9022201A9264801F036F907B090
:1028100000BD00B587B0022206A91D4801F01CF9D1
:10282000022205A91B4801F017F9022204A91A483F
:1028300001F012F9022203A9184801F00DF9022251
:1028400002A9174801F008F9022201A9154801F070
:1028500003F90A490698086005984860049888605A
:102860000A4903980860029848600198886007B098
:1028700000BD0000EC0100200000C842D80000208C
:10288000F000002020010020FC000020E4000020D7
:1028900000C8010800D0010800D8010800E00108C4
:1028A00000E8010800F0010870B504460D46E1B2E9
:1028B0008A48FFF7EBFB00BF40218848FFF754FC34
:1028C0000028F9D0204670BD10B5FEF7C3F90020EE
:1028D000FEF765FA4FF48060FEF76AFA0020FEF713
:1028E00070FA0020FEF788FA0220FDF727FD10207D
:1028F000FDF738FD4FF460110020FEF733FA012098
:10290000FEF73CFA00BF3920FEF7E7F90028FAD0BD
:102910000220FEF736FA00BFFEF73CFA0828FBD18A
:1029200001211C20FEF704FB01210846FEF700FBF5
:102930000121C802FEF7FCFA01214804FEF705FB5D
:1029400010BD10B586B0044601210520FEF7F0FA4F
:1029500001214804FEF7F9FA0420ADF8140018200C
:102960008DF8170003208DF8160005A95C48FEF7C6
:1029700023F80820ADF8140004208DF8170005A9ED
:102980005748FEF719F801940020ADF80800ADF89B
:102990000A00ADF80C00ADF810000C20ADF80E00E8
:1029A00001A94E48FFF779FA01214C48FFF701FBD6
:1029B00006B010BD0EB54B48FEF71EFB0121C80244
:1029C000FEF7B6FA41F28830ADF804003F20ADF8CA
:1029D00000000020ADF80600ADF802008DF80800F8
:1029E00069464048FEF7DCFB01213E48FFF7FAF953
:1029F000012241213B48FEF74AFF00213948FEF7FA
:102A00002BFF0EBD10B501213648FFF7EEF9D8B106
:102A100035480088401C344908804FF40051334841
:102A2000FEF75DF83249097840EA41003049087004
:102A300008460078F02802D100F0ADFE00E000BFAB
:102A400001212848FFF7E2F910BD1CB50121084615
:102A5000FEF76EFA0D210220FEF7C4F84FF4005085
:102A6000009000208DF804000C208DF80500012056
:102A70008DF806006846FDF7E1FB1CBD08B528206F
:102A80008DF8000001208DF8010000208DF8020073
:102A900001208DF803006846FDF759FB19208DF8D9
:102AA000000001208DF801008DF802008DF8030070
:102AB0006846FDF74CFB08BD10B501F0C8F8FFF7FC
:102AC00003FF4FF4E130FFF73CFF00F053FE00F04E
:102AD00076F9FFF76FFFFFF7D1FF10BD004400400C
:102AE00000080140002C0140380000200010014087
:102AF0003A00002008B5002100913EE000BF00BF71
:102B000000BF00BF00BF00BF00BF00BF00BF00BFCD
:102B100000BF00BF00BF00BF00BF00BF00BF00BFBD
:102B200000BF00BF00BF00BF00BF00BF00BF00BFAD
:102B300000BF00BF00BF00BF00BF00BF00BF00BF9D
:102B400000BF00BF00BF00BF00BF00BF00BF00BF8D
:102B500000BF00BF00BF00BF00BF00BF00BF00BF7D
:102B600000BF00BF00BF00BF00BF00BF00BF00BF6D
:102B700000BF00BF0099491C009100998142BDD35C
:102B800008BD00B50520FFF7B5FF00BD10B5F7483B
:102B9000006820F0F000F54908600846006840F041
:102BA000300008604815F1490C3108604010086099
:102BB000FFF7E7FF4FF40070EC4910310860FFF7B2
:102BC000E0FF4FF48070E94910310860FFF7D9FF4A
:102BD00010BD10B5E548006820F0F000E34908603A
:102BE0000846006840F0300008604815DF491031A1
:102BF00008604010091F0860FFF7C3FF4FF4007022
:102C0000DA490C31086010BD70B50446002526E095
:102C100004F0800028B14FF40070D4490C310860F2
:102C200004E04FF40070D14910310860FFF7A9FFAC
:102C30004FF48070CD490C310860FFF7A2FF4FF4CC
:102C40008070CA4910310860072D02D14000091F69
:102C500008606006040EFFF794FF681CC5B2082DDB
:102C6000D6DB70BD10B54FF40070C049103108605C
:102C7000FFF787FF4FF48070BC490C310860FFF705
:102C800080FF4FF48070B94910310860FFF779FF79
:102C90004FF40070B5490C31086010BD10B54FF409
:102CA0000070B2490C310860FFF76BFF4FF4807081
:102CB000AE490C310860FFF764FF4FF48070AB49F8
:102CC00010310860FFF75DFF10BD70B50546A748DD
:102CD000006820F0F000A54908600846006840F050
:102CE00080000860FFF74DFF0024002619E0600611
:102CF000040E4FF480709D490C310860FFF741FFCE
:102D00009A48001D006800F4007008B1601CC4B24D
:102D10004FF48070954910310860FFF732FF701C46
:102D2000C6B2082EE3DB9148006820F0F0008F491E
:102D300008600846006840F030000860FFF721FF97
:102D400015B9FFF7ABFF01E0FFF78CFF204670BD20
:102D500010B54FF4007085490C3108608348006855
:102D600020F0F000814908600846006840F08000CB
:102D70000860FFF706FF4FF480707C490C31086053
:102D8000FFF7FFFE7948001D006800F4007008B1ED
:102D9000012400E000244FF4807074491031086071
:102DA0007248006820F0F00070490860084600682A
:102DB00040F030000860FFF7E4FE204610BD08B583
:102DC00001210820FEF7B4F84FF44070ADF8000080
:102DD00003208DF8020014208DF803006946634833
:102DE000001FFDF7E9FDFFF7F4FE08BD70B50646CC
:102DF0000C461546FFF7CAFE3046FFF705FFFFF702
:102E0000A7FF08B1002070BD2046FFF7FDFEFFF7C9
:102E10009FFF08B10020F6E72846FFF7F5FEFFF711
:102E200097FF08B10020EEE7FFF7D3FE0120EAE7A5
:102E30002DE9F04180460D4616461F46FFF7A6FED7
:102E40004046FFF7E1FEFFF783FF10B10020BDE829
:102E5000F0812846FFF7D8FEFFF77AFF08B100207F
:102E6000F5E7002409E0305DFFF7CEFEFFF770FFC5
:102E700008B10020EBE7601CC4B2BC42F3DBFFF7F3
:102E8000A8FE0120E3E72DE9F04106460F4614466F
:102E90009846FFF77BFE3046FFF7B6FEFFF758FF78
:102EA00010B10020BDE8F0813846FFF7ADFEFFF716
:102EB0004FFF08B10020F5E7FFF768FE46F001007C
:102EC000FFF7A2FEFFF744FF08B10020EAE7002564
:102ED00006E00120FFF7F9FE2070641C681CC5B2F3
:102EE000A8F10100A842F4DC0020FFF7EEFE2070FC
:102EF000FFF76FFE0120D5E72DE9F04107460D46AB
:102F00001646FFF743FEF020FFF77EFEFFF720FF97
:102F100010B10020BDE8F0813846FFF775FEFFF7DD
:102F200017FF08B10020F5E7002409E0285DFFF74E
:102F30006BFEFFF70DFF08B10020EBE7601CC4B289
:102F4000B442F3DBFFF745FE0120E3E770B504462A
:102F50000E46FFF71BFEF120FFF756FEFFF7F8FEC7
:102F600008B1002070BD002509E00000040C0140FC
:102F70000120FFF7AAFE2070641C681CC5B2701EF9
:102F8000A842F5DC0020FFF7A0FE2070FFF721FE2D
:102F90000120E7E770B504460D46164633462A463B
:102FA00021465820FFF76FFF70BD70B504460D46EF
:102FB0002A4621465820FFF719FF70BD60B901214C
:102FC000FE4A1170517091700021D1700122FB49AD
:102FD0000A7102224A717AE001280CD1FF21F74AD6
:102FE0001170012151709170D1700022F3490A7162
:102FF00002224A716BE002280DD1FF21EF4A1170C5
:103000005170012191700021D1700122EB490A71A8
:1030100002224A715BE003280DD10121E74A1170B9
:10302000FF21517001219170D1700022E3490A7192
:1030300002224A714BE004280ED1FF21DF4A1170B1
:1030400001215170FF2191700021D1700122DB49D3
:103050000A7102224A713AE005280DD10121D74AAE
:1030600011705170FF2191700121D1700022D3495C
:103070000A7102224A712AE006280DD10121CF4AA5
:103080001170FF21517091700021D1700122CB4944
:103090000A7102224A711AE007280CD1FF21C74A9F
:1030A0001170517091700121D1700022C3490A71D1
:1030B00002224A710BE00121C04A117051709170D7
:1030C0000021D1700122BD490A7102224A71704764
:1030D00038B500200090002401226946FFF75AFF0E
:1030E00004462CB9B649B7A001F0EEF9002038BD6E
:1030F0009DF80010BBA001F0E7F9C34800789DF8E7
:1031000000100840C049097888421AD1BE4840786A
:103110009DF800100840BC494978884211D1BA484E
:1031200080789DF800100840B7498978884208D116
:10313000B548C0789DF800100840B349C978884266
:1031400000D000240120D2E770B586B000200290A4
:1031500003900025019007E009200190012201A9B8
:10316000FFF718FF04466D1C9DF8040000F00100F5
:1031700008B9052DF0DB01208DF81000062204A906
:10318000FFF708FF044614B9002006B070BD9DF893
:1031900010009DF8111040EA012000B2ADF80800BF
:1031A0009DF812009DF8131040EA012000B2ADF81E
:1031B0000A009DF814009DF8151040EA012000B2A5
:1031C000ADF80C00BDF9080000F07DFF06468F4900
:1031D00000F05AFE8E4908608E490860BDF90A0069
:1031E00000F071FF0646894900F04EFE88494860AC
:1031F00088494860BDF90C0000F065FF0646834928
:1032000000F042FE82498860824988602046BCE71F
:103210002DE9F0410024002500260027FFF794FF48
:103220007C4800687C497D4A127841F82200794840
:1032300040687B49794A127841F8220075488068D5
:103240007849764A127841F8220074480078401C88
:1032500072490870084600780C2801D100200870D7
:10326000002416E06C4850F82410284600F082FD37
:1032700005466B4850F82410304600F07BFD0646AA
:10328000684850F82410384600F074FD0746601C6A
:10329000C4B20C2CE6DB6449284600F0F5FD634916
:1032A00008606149304600F0EFFD604948605E49C2
:1032B000384600F0E9FD5D498860BDE8F08138B529
:1032C0000446002500200090012269460A20FFF7ED
:1032D00061FE05469DF8000020F0030020430090A9
:1032E0009DF800200A2152A001F0EEF89DF8001090
:1032F0000A20FFF75AFE0546284638BD38B5044671
:10330000002500200090012269460A20FFF742FEB6
:1033100005469DF8000020F0E80040EA4410C0B2E5
:1033200000909DF800200A214BA001F0CDF89DF8F7
:1033300000100A20FFF739FE0546284638BD10B5B3
:1033400040210D20FFF731FE044608210B20FFF736
:103350002CFE04460220FFF7D1FF04460320FFF7AE
:10336000AEFF0446204610BD38B50024FFF7B0FE7E
:1033700004460CB9002038BD0020FFF71FFEFFF700
:10338000DEFF012269460A20FFF704FE9DF80020B7
:103390000A213EA001F098F8012269460B20FFF7B0
:1033A000F9FD9DF800200B2138A001F08DF80122D5
:1033B00069460D20FFF7EEFD74E000003F0000209D
:1033C000E456000825733A20716D63363330385F58
:1033D0006765745F636869706964206661696C65BC
:1033E000640A0000716D63363330385F6765745F5F
:1033F00063686970696420636869706964203D204E
:10340000307825780A0000003B00002000007A4454
:1034100014010020080100202C010020450000209C
:103420005C0100208C0100200000404120010020B0
:10343000716D63363330385F7365745F6D6F6465CB
:103440002C2030783041203D205B253032785D2DB6
:103450003E5B253032785D00716D63363330385F06
:103460007365745F6F75747075745F646174615FA8
:10347000726174652C2030783041203D205B25300E
:1034800032785D2D3E5B253032785D00716D63369C
:103490003330382020307825783D30782578200A60
:1034A000000000009DF800200D21AFF2200001F087
:1034B0000BF801205FE7000006E0002101E0521C4C
:1034C000491CC829FBD3401E0028F6D1704770B5AF
:1034D00004460D462A4621462420FFF787FC70BD8E
:1034E00070B504460D46164633462A46214624202A
:1034F000FFF7C9FC70BD10B501228D490020FFF710
:10350000EFFF8B4801788BA000F0DEFF8848007841
:10351000E0282BDB86480078E72827DCB621362018
:10352000FFF7D5FF47F23050FFF7C6FF00213620E6
:10353000FFF7CDFF02210F20FFF7C9FF4FF4006016
:103540007F490880E2207F490870084601781020F2
:10355000FFF7BDFF80211120FFF7B9FF80215F2019
:10356000FFF7B5FF00215F20FFF7B1FF10BD2DE988
:10357000FC5F002001900090062273490120FFF7B4
:10358000AFFF0190019808B9BDE8FC9F6E484078F4
:10359000000200B26C49097808436C4908806A4807
:1035A000C078000200B268498978084367494880BA
:1035B00065484079000200B26349097908436349CC
:1035C00088800846B0F90000801008800846B0F9ED
:1035D0000200801048800846B0F9040080108880FE
:1035E0005748008800F089FD06460F465749B1F953
:1035F000000000F071FD8246554A564B00F082FCF7
:10360000804632463B4600F0EFFC044600F095FD54
:10361000514908604A48008800F06FFD06460F4691
:103620004A49B1F9020000F057FD8246484A494B29
:1036300000F068FC804632463B4600F0D5FC04466C
:1036400000F07BFD444948603D48008800F055FD8E
:10365000804689463D49B1F9040000F03DFD06462B
:103660003B4A3C4B00F04EFC044642464B4600F0C1
:10367000BBFC824600F061FD3749886000BF83E7EC
:103680002DE9F0410024002500260027FFF76FFFF9
:10369000314800683149324A127841F822002E48F8
:1036A000406830492E4A127841F822002A48806842
:1036B0002D492B4A127841F8220029480078401CF5
:1036C00027490870084600780C2801D100200870AE
:1036D000002416E0214850F82410284600F04AFB48
:1036E0000546204850F82410304600F043FB0646BB
:1036F0001D4850F82410384600F03CFB0746601C7B
:10370000C4B20C2CE6DB1949284600F0BDFB184971
:1037100008601649304600F0B7FB15494860134968
:10372000384600F0B1FB12498860BDE8F081000026
:10373000480000206368697069643A25640A0000E3
:103740004A0000204C000020640000205E000020A1
:1037500077BE9F1A2F9D2340BC010020F801002056
:103760007400002028020020580200200000404180
:10377000EC01002008B501211020FDF7D9FB4FF422
:103780000050ADF8000004208DF80300694656484B
:10379000FDF712F908BD10B554480078401C534994
:1037A000087008460078082801DD002008704F489E
:1037B000007809284DD2DFE800F04C0512162327C7
:1037C000373B450001204A4908704AA000F07CFEC2
:1037D0004CA000F079FE01205A4908703AE002201E
:1037E0004349087036E003204149087056A000F0B4
:1037F0006BFE01206149087061A000F065FE29E0C0
:1038000004203B49087025E0052039490870002054
:103810005A490870674800F057FE01206649087051
:1038200057A000F051FE15E006203149087011E064
:1038300007202F49087000205F4908705FA000F042
:1038400043FE07E008202A49087067A000F03CFE0C
:1038500000E000BF00BF10BD10B525480078092862
:103860003ED2DFE800F005060720212B2C3637007A
:1038700037E036E011E0FEF7EFFE60480068401CDC
:103880005E49086008460068192805D100202D49C6
:1038900008705BA000F018FE03E02A4800780028BA
:1038A000E9D100BF00BF1CE002E0FEF70DFF03E01E
:1038B000324800780028F8D100BF00BF11E002E0D4
:1038C000FEF74CFF03E03C4800780028F8D100BF29
:1038D00000BF06E0FEF769FF00200549087000E020
:1038E00000BF00BF10BD0000001001407B000020A1
:1038F0007C000020D0A3D7BCC4A3CABDD2D1BDF8E0
:10390000C8EB0A00BDD3CFC2C0B4BDF8D0D0BCD381
:10391000CBD9B6C8BCC6D0A3D7BC2CD0A3D7BCB912
:10392000FDB3CCD6D0C7EBCEF0D2C6B6AFC2DEC5A3
:10393000CC2CC7EBB0B4B0B4BCFCBFAACABCA1AD20
:10394000A1AD0A0078000020BDD3CFC2C0B4BDF83D
:10395000D0D0B4C5C1A6BCC658BACD59D6E1D0A303
:10396000D7BC2CC7EBCBAEC6BDD0FDD7AAC2DEC537
:10397000CCD2BBD6DCA1ADA1AD0A000079000020FD
:10398000C7EBB0B4CFC2B0B4BCFCBFAACABCD0FDB8
:10399000D7AA2CD0FDD7AACDEAB3C9BAF3C7EBD4C6
:1039A000D9B4CEB0B4CFC2B0B4BCFCA1ADA1AD0A05
:1039B00000000000585800087A000020B4C5C1A6D5
:1039C000BCC6D0A3D7BCCDEAB3C92CC7EBB0B4B04A
:1039D000B4BCFCCDCBB3F6D0A3D7BCC4A3CABDA1A5
:1039E000ADA1AD0A00000000D2D1CDCBB3F6D0A37B
:1039F000D7BCC4A3CABDA1ADA1AD0A008000002000
:103A0000BCD3BCC6D0A3D7BCCDEAB3C92CC7EBB0DE
:103A1000B4B0B4BCFCBDF8D0D0CFC2D2BBB2BDD024
:103A2000A3D7BCA1ADA1AD0A0000000001460888E3
:103A300070472DE9F04105460E461746002407E081
:103A400036F814102846FCF7E0FDAD1C601C84B26B
:103A5000BC42F5DBBDE8F08130B503460C461546A7
:103A6000002207E01846FFF7E1FF24F812009B1C34
:103A7000501C82B2AA42F5DB30BD2DE9F05F8046D2
:103A80008A461746B8F1006F02D33748804501D304
:103A9000BDE8F09FFCF771FCA8F1006B4FEA9B2595
:103AA000CBF34809C9F50074A74200DC3C464DE061
:103AB0004FF0006101EB85208A142C49FFF7CCFF01
:103AC00000260BE009EB0600284931F810004FF6FC
:103AD000FF71884200D003E0701C86B2A642F1DB81
:103AE00000BFA6421BDA4FF0006101EB8520FCF716
:103AF00089FC002608E03AF8160006EB09011B4A8B
:103B000022F81100701C86B2A642F4DB4FF000616F
:103B100001EB85208A141549FFF78BFF04E022464C
:103B200051464046FFF785FFA74200D10FE06D1CCC
:103B30004FF000090AEB440AA044381B87B2B7F5DE
:103B4000007F02DD4FF4007400E03C46B0E700BFA8
:103B5000FCF71FFC00BF9BE713B50446012201A937
:103B60002046FFF78AFF1CBD0000020888020020E3
:103B70000CB50020019000906C48006840F4803043
:103B80006A49086000BF6948006800F4003000908E
:103B90000198401C0190009818B90198B0F5A06FE9
:103BA000F1D16248006800F4003010B101200090AB
:103BB00001E0002000900098012843D15C48006893
:103BC00040F010005A4908600846006820F00300E1
:103BD00008600846006840F00200086053484068EA
:103BE000524948600846406848600846406840F4CA
:103BF000806048600846406820F47C1048600846B1
:103C0000406840F4E81048600846006840F0807062
:103C1000086000BF4548006800F000700028F9D037
:103C20004248406820F00300404948600846406828
:103C300040F00200486000BF3C48406800F00C00C3
:103C40000828F9D10CBD10B5FFF792FF10BD10B5D3
:103C50003648006840F00100344908600846406872
:103C600034490840314948600846006832490840F4
:103C70002E4908600846006820F480200860084645
:103C8000406820F4FE0048604FF41F008860FFF792
:103C9000DAFF4FF000602949086010BD10B500211F
:103CA00000200022214B5B6803F00C0121B10429A4
:103CB00006D0082928D107E0214B224C236027E0B9
:103CC0001F4B204C236023E0184B5B6803F47010FB
:103CD000164B5B6803F48032022303EB904022B959
:103CE000194B4343174C23600DE0104B5B6803F402
:103CF000003323B1144B4343124C236003E0104BB9
:103D00004343104C236003E00D4B0E4C236000BF77
:103D100000BF064B5B68C3F303130C4CE15C094B1B
:103D20001B68CB40074C236010BD00000010024010
:103D3000002002400000FFF8FFFFF6FE08ED00E063
:103D400000127A008400002000093D008800002055
:103D50000648804706480047FEE7FEE7FEE7FEE725
:103D6000FEE7FEE7FEE7FEE7FEE7FEE74F3C000862
:103D700031010008F0B480EA0102D40F4200B2EB36
:103D8000410F02D20246084611464A0042D0C30DF6
:103D9000DDB2C1F3C752AD1A202D35DAC1F31601D9
:103DA00041F4000204B15242C5F1200602FA06F1C4
:103DB0002A411044B3EBD05F23D0C4B1012DA0EB56
:103DC000C35009DCF0BC4FF0004202EAC352DBB240
:103DD00000F5000000F01CBA400000F1807000EB1C
:103DE000C350A0F1807040EAD170490009E0490851
:103DF00041EAC071A0EBC35000F50000400800EBA1
:103E0000C350F0BC00F0FBB96142012202EB41015A
:103E1000001BF6E7F0BC704781F00041AAE780F094
:103E20000040A7E780EA010210B502F0004340001D
:103E300022D04A001FD0010E01EB1261C0F35600E0
:103E4000C2F3560240F4000042F40002A0FB02203C
:103E500000047F39140400D0401C50EA124001D401
:103E60004000491EC2B20C0604EBD010401C4008B2
:103E7000802A02D003E0002010BD20F001000029BC
:103E800000DA0020184310BD30B480EA010202F0CD
:103E9000004530F0004221F0004013D090B1C30D36
:103EA000D40DC2F31601C0F31600E41A41F4000168
:103EB00040F400027D34914201D3641C00E04900CB
:103EC000002C02DA30BC002070474FF400000023C1
:103ED000914201D3891A034340084FEA4101F7D1C7
:103EE00051B1914202D14FF0004105E002D24FF0B2
:103EF000010101E06FF0010103EBC450284430BC24
:103F000000F07DB92DE9FE4F81EA030404F000447E
:103F100021F0004100944FF0000B23F0004350EAE1
:103F200001045ED052EA03045BD0C3F30A54C1F328
:103F30000A552C44A4F2F3340194A0FB0254C1F3BB
:103F4000130141F48011C3F3130343F4801301FB05
:103F5000024400FB034E840A970A44EA815447EA6C
:103F60008357A4FB076802958D0A05FB07854FEA76
:103F7000932C04FB0C542705029D4FEA065847EA90
:103F80001637B5EB08056EEB070C870E920E47EA65
:103F9000811742EA8312A7FB0201B6EB0B0164EB27
:103FA00000042B0D43EA0C335E1844EB1C50DA4638
:103FB0005146E7FB0201C5F313044FEA0B3343EA12
:103FC00014534FEA0432019C43EA0603A4F10C04A3
:103FD0000294009CCDE900B400F0B0F903B0BDE854
:103FE000F08F00200146F9E72DE9F04D81EA030446
:103FF00004F0004B21F0004514464FF0000A23F076
:10400000004150EA050220D054EA01021DD0C5F358
:104010000A570246C5F31303C1F31300C1F30A564E
:1040200040F4801543F48013A7EB0608101BD64616
:1040300008F2FD3873EB050002D308F1010801E036
:1040400092185B41B8F1000F03DA00200146BDE889
:10405000F08D00204FF48011064684460EE0171BB9
:1040600073EB050705D3121B63EB050306434CEA0C
:10407000010C49084FEA300092185B4150EA0107F1
:10408000EDD152EA030012D082EA040083EA05016E
:10409000084305D0101BAB4106D20122002306E0E5
:1040A00000224FF0004302E06FF0010253101AEBC0
:1040B00006004CEB085110EB0A0041EB0B01BDE888
:1040C000F04D00F02CB9C10F80EAE0700844CA0737
:1040D0009623002100F09CB80EB5C10F80EAE07075
:1040E0000844CA07002140F233438DE80E000A4617
:1040F0000B4600F023F903B000BD0EB540F233418A
:1041000002910021CDE900110A460B4600F016F994
:1041100003B000BD00F0004230F000400AD0C10DF5
:1041200001F56071C0F3160042EA0151C208400770
:104130001143704700200146704701F0004330B43E
:1041400021F0004150EA010206D00A0DA2F560728A
:10415000C1F31301002A02DC30BC00207047440F79
:1041600044EAC104C100E01830BC00EBC25000F0CA
:1041700046B80000002801DBC0F10040002901DB47
:10418000C1F1004181427047002801DBC0F10040CD
:10419000002901DBC1F10041884270472DE9F05F41
:1041A0000546002092469B468846064681464024A6
:1041B0001BE0284641464746224600F070F9534628
:1041C0005A46C01A914110D311461846224600F0B3
:1041D00057F92D1A67EB01084F46224601200021AE
:1041E00000F04EF917EB00094E41201EA4F1010426
:1041F000DFDC484631462A464346BDE8F09F0029A9
:10420000A8BF7047401C490008BF20F0010070475C
:1042100010B4B0FA80FC00FA0CF050EA010404BFBC
:1042200010BC704749B1CCF1200421FA04F411FA12
:104230000CF118BF012121430843A3EB0C01CB1D56
:104240004FEA00614FEA102042BF002010BC7047C7
:1042500000EBC35010440029A4BF10BC7047401CA1
:10426000490008BF20F0010010BC7047420005D093
:10427000C0F3C7525242914201DC0020704700EB6C
:10428000C1507047F0B4002802DCF0BC0020704739
:10429000C0F3C751C0F3160040F40000CA0701D1B3
:1042A0004000491E3F2202EB6105002211464FF4F7
:1042B000000626FA01F31344D418844201D8001BE7
:1042C0001A464000491C1729F3DD5100814202D2F1
:1042D0004FF0FF3100E0002102EBC550F0BCFFF7CA
:1042E0008EBF10B541000CD0C0F3C751962908DC31
:1042F0007E2909DC06DB410204D000F0004040F0DA
:104300007E5010BD002010BDC1F19604C4F1200103
:1043100000FA01F1E040FFF772FFA04010BD10B5B8
:10432000141E73F1000408DA401C41F100019218D8
:104330005B411A4301D120F0010010BD2DE9F04D81
:1043400092469B4611B1B1FA81F202E0B0FA80F2D6
:104350002032904600F094F804460F4640EA0A00E6
:1043600041EA0B0153465A46084313D0114653EA1B
:10437000010019D0C8F14002504600F090F80546FF
:104380000E4650465946424600F07AF8084305D09A
:10439000012004E020463946BDE8F08D00200543A9
:1043A00046EAE0762C4337430A986305E40AA0EB1B
:1043B00008000022FD0A44EA47540A3002D50020D2
:1043C0000146E9E7010510196941DDE908450019D1
:1043D0006941BDE8F04DA2E700F0004220F0004046
:1043E000C10DC0F3160040F400007F2901DA00205F
:1043F0007047962903DCC1F19601C84001E0963967
:104400008840002AF4D04042704710B500F00044C4
:1044100020F00040C20DC0F3160040F400007F2AD7
:1044200007DA7D2A00DA7D22763A00FA02F10020CE
:1044300008E0962A09DCA2F1760100FA01F1C2F146
:104440009602D040FFF7DBFE01E0963A9040002C48
:1044500000D0404210BD002070470000064C074DC0
:1044600006E0E06840F0010394E807009847103444
:10447000AC42F6D3FBF760FE9C580008BC5800081D
:10448000202A04DB203A00FA02F100207047914014
:10449000C2F1200320FA03F3194390407047202A09
:1044A00004DB203A21FA02F00021704721FA02F3DE
:1044B000D040C2F12002914008431946704796232C
:1044C00000221146FFF7A4BE0FB4054B10B503A997
:1044D000044A029800F0FEF810BC5DF814FB0000DE
:1044E000A9280008980000204100080218BF0420F5
:1044F0000A0E18BF40F001004FF07F4232EA01017E
:1045000008BF40F00200012808BF052070470021C5
:104510004FF07E50FFF7B8BC0121FFF7A7BEFFF7B1
:1045200029BC00210846FFF7AFBC61214FF0E040F5
:10453000FFF79CBE6FF05E010807FFF797BE000013
:104540002DE9F04D0D4614464FF07F41B1EB440F7D
:104550009EBF4FF0FF312960BDE8F08D4FF0004065
:1045600040EA0421C4F3C750783810F01F024A4BC8
:104570004FEA601CC2F120067B44C4F3C750A0F18F
:1045800078004FEA601003EB800053F82C3008BF2E
:10459000D0E901C612D0D0F804C093402CFA06F737
:1045A0003B4387680CFA02FC27FA06F8C06807FA52
:1045B00002F2F0404CEA080C42EA0006A3FB01328A
:1045C000ACFB01C0A6FB016101EB0C068E4234BFBF
:1045D0004FF0010C4FF0000CC1186144BCF1000F0A
:1045E00002D0814202D903E0814201D2012000E0E1
:1045F0000020104400F120024FEA92188006CA0CF5
:1046000040EA42304F03C5F80080FFF75CFD824668
:104610003846FFF754FF6FF01201FFF727FE0746F9
:104620003046FFF74CFF6FF02501FFF71FFE834672
:1046300039465046FFF79EFB5946FFF79BFB00F5B6
:1046400000666FF30B0651463046FFF7E5FB39462F
:10465000FFF7E2FB5946FFF7E2FB1049FFF7E2FBE9
:1046600007460F493046FFF7DDFB3946FFF782FB6F
:1046700007460C493046FFF7D5FB3946FFF77AFB72
:1046800014F0004F08BFBDE8F08DC8F1805180F0F4
:1046900000402960BDE8F08DBC120000DB0FC92F7F
:1046A00022AAFD290000C92F02E008C8121F08C174
:1046B000002AFAD170477047002001E001C1121FA3
:1046C000002AFBD1704700000149086070470000D4
:1046D0009C0000202DE9FF4F8DB00F4605460026B7
:1046E00006E025280BD0DDE90F1290476D1C761CE3
:1046F00028780028F5D111B03046BDE8F08F0024AD
:10470000A246A1460122EC4900E0044315F8013F0E
:10471000203B02FA03F00842F7D128782A2810D06B
:104720006FF02F022878A0F13001092914D80AEB84
:104730008A0102EB410144F0020400EB010A6D1C06
:10474000F0E701CF5FEA000A03D544F40054CAF150
:10475000000A44F002046D1C28782E2817D115F8A1
:10476000010F44F004042A280ED06FF02F0228789D
:10477000A0F1300109290AD809EB890102EB4101B6
:1047800000EB01096D1CF2E757F8049B6D1C2878BB
:104790006C280FD006DC4C2817D068280DD06A286A
:1047A00014D104E0742810D07A280FD10DE044F41D
:1047B00000140AE044F4801401E044F440146978E1
:1047C000814202D104F580146D1C6D1C2A786E2A7A
:1047D0001FD00CDC632A31D004DC002A8BD0582A8D
:1047E00011D1A3E0642A68D0692A0CD165E0732A4C
:1047F0002ED004DC6F2A73D0702A04D19BE0752A76
:104800006FD0782A6ED01046DDE90F129047761CE3
:1048100050E1C4F30250022806D0032809D004282E
:1048200001CF09D0066045E101CFF117C0E9006171
:1048300040E101CF06803DE106703BE117F8040B33
:104840008DF8000000208DF80100EB46012003E008
:1048500057F804BB4FF0FF3061074FF0000102D45E
:104860000DE008F10101884649450FDA8045F8DB83
:104870001BF808100029F4D108E008F1010188466E
:104880008142FADB1BF808100029F6D1DDE90F237D
:10489000AAEB08008146214600F036F9304400EBCF
:1048A000080604E0DDE90F121BF8010B9047B8F190
:1048B0000108F7D221464846F7E00A21C4F3025323
:1048C0004FF0000B0891022B04D001CFC117032B2E
:1048D00009D00AE0FF1D27F00707F7E8020108E00A
:1048E00032E01FE020E000B2C117042B01D140B23A
:1048F000C117031E71F1000307DA4FF0000CD0EB73
:104900000C006CEB01012D2302E0230504D52B23C1
:104910008DF82430012303E0E30701D02023F7E7DB
:10492000984658E00A2110E010210EE010204FF0C8
:10493000000B08900CE010214FF0000B44F0040431
:104940004FF00809089103E008214FF0000B08918F
:10495000C4F30253022B04D001CF0021032B06D055
:1049600006E0FF1D27F00707F7E8020103E080B229
:10497000042B00D1C0B24FF0000823072BD5702ABA
:1049800007D0DDF820C08CF0100C5CEA0B0C05D0D1
:104990000EE040238DF82430012308E050EA0103A3
:1049A00006D030238DF824308DF825200223984638
:1049B000DDF820C08CF0080C5CEA0B0C0BD150EA3F
:1049C000010301D1630706D530238DF824304FF061
:1049D0000108A9F10109582A04D038A20B9208AAAB
:1049E0000A920BE03AA2F9E75B46089AFFF7D6FB7A
:1049F0000B9B9B5C0A9A521E0A92137050EA0102AA
:104A0000F2D10A98ADEB000000F1200B600702D54F
:104A100024F4803401E04FF00109D94502DDA9EB0F
:104A20000B0000E0002000EB0B0141440890AAEBD2
:104A3000010AE00306D4DDE90F232146504600F0C9
:104A400063F806444FF0000908E009A911F80900CD
:104A5000DDE90F12904709F10109761CC145F4DB2D
:104A6000E0030CD5DDE90F232146504600F04CF859
:104A7000064404E0DDE90F1230209047761C0899C7
:104A8000481E08900029F5DC08E00A980A99007889
:104A9000491C0A91DDE90F129047761CBBF1000119
:104AA000ABF1010BF1DC21465046DDE90F2300F0AC
:104AB00019F806446D1C1BE6092801003031323319
:104AC000343536373839616263646566000000004A
:104AD0003031323334353637383941424344454634
:104AE000000000002DE9F041044600251E4617464F
:104AF000880404D405E039462020B0476D1C641EAC
:104B0000F9D52846BDE8F0812DE9F041044600259D
:104B10001E469046C80301D5302700E020278804B0
:104B200004D505E041463846B0476D1C641EF9D5F2
:104B30002846BDE8F08100002DE9F0474FF06842BB
:104B400002EB40030C460546B3F1654F3CBF02EB58
:104B50004102B2F1654F7CD2C0F3C753C1F3C752D3
:104B60009A1A1B2A06DD10F0004F14BF76487748CA
:104B7000BDE8F08712F11A0F17DA11F0004F06D0D6
:104B800010F0004F0CBF72487248BDE8F087214614
:104B90002846FFF779F90446FFF7A6FC042808BF6A
:104BA000FFF7C8FC2046BDE8F0874200B2EB410F9A
:104BB00025D910F0004F19BF674F684E684F694EF6
:104BC000224685F0004415460A4680F00041104612
:104BD0000A1A5200B2F1807F40D248406249DFF8A1
:104BE0008CA110F0004F18D04FF03F483846FFF727
:104BF00013F9074651463046FFF70EF917E011F05A
:104C0000004F04BF00263746E2D010F0004F19BF16
:104C1000574F584E584F594EDAE74FF07C583846A8
:104C2000FFF7A8F8074651463046FFF7A3F80646B7
:104C300041462846FFF7F6F82146FFF79BF88246E3
:104C400021464046FFF7EEF82946FFF7E8F85146BF
:104C500000E037E0FFF718F9044604E02146284653
:104C6000FFF712F904460146FFF7DCF88046444995
:104C7000FFF7D8F84349FFF77DF84146FFF7D2F830
:104C80004149FFF777F84146FFF7CCF83F49FFF776
:104C900071F84146FFF7C6F83D49FFF76BF8054646
:104CA00041462046FFF7BEF82946FFF7BBF83146DC
:104CB000FFF760F82146FFF75DF83946BDE8F04799
:104CC000FFF758B84FF07F42B2EB400F28BFB2EB6E
:104CD000410F03D2BDE8F047FFF721BC40EA0103D2
:104CE0005B0008BF44F0FF410AD0B2EB400F08BFA1
:104CF000B2EB410F06D125F0804024F080410546FB
:104D00000C4629E7B2EB400F12BF5FEA410245F0C3
:104D1000FF4004F000413FF41FAF4A0092EA400315
:104D20003FF51AAF002AACBF4FF09F464FF03E56FA
:104D30003146FFF777F8054631462046FFF772F80F
:104D400004462846214607E7DB0FC9BFDB0FC93FF2
:104D5000DB0F4940DB0F49C00000C9BF22AAFDB9E3
:104D60000000C93F22AAFD390060ED3EC30ACE37DC
:104D7000000049C022AA7DBA0000494022AA7D3A1B
:104D80002DAD65BD8FB8D53D0FB511BE61C84C3E88
:104D9000A8AAAABE2DE9F843044602464F48694630
:104DA000B0EB420F09D94FF0E640B0EB420F94BF91
:104DB00000204FF0FF30009030E0494B22F00040DF
:104DC000834271D947492046FFF72CF8FFF789FA4B
:104DD0008046FFF701FB00F0030000904249404687
:104DE000FFF720F8054641494046FFF71BF8064605
:104DF0003F494046FFF716F807463E494046FFF751
:104E000011F82146FFF70BF83946FFF705F8314650
:104E1000FFF702F82946FEF7FFFF04462546009CEF
:104E2000002C45DB294614F0010F08461CD0FEF784
:104E3000F9FF06463049FEF7F5FF3049FEF7EFFF70
:104E40003146FEF7EFFF2E49FEF794FF3146FEF79D
:104E5000E9FF2946FEF7E6FF2946FEF78BFF14F02F
:104E6000020F1CD0BDE8F883FEF7DCFF054625499C
:104E7000FEF7D8FF2449FEF77DFF2946FEF7D2FF53
:104E80002249FEF777FF2946FEF7CCFF4FF07E510F
:104E9000FEF770FF14F0020F08BFBDE8F88380F042
:104EA0000040BDE8F883FFE71046FFF749FBB4E791
:104EB0006800B0F17F4F3CBF4FF07E50BDE8F883F3
:104EC00007D14FF00100FFF7FFFBBDE8F843FFF704
:104ED00028BB2846BDE8F843FFF71EBBB61F927EED
:104EE000490E494683F9223F1A61342C0020A2332F
:104EF00000A0FD390000C93F336D4C39DA82083C0F
:104F0000A0AA2ABEB93AB2BACA9F2A3DDDFFFFBEA7
:104F10002DE9F04D0E460023A0F5000C4FF0007176
:104F2000354684B002464FF07E5401EB45014FF008
:104F30007F48BCF1FE4F80F09F81B1F1804FC0F0FF
:104F4000DB81FE490144B1F5005F40F2A78200F524
:104F50008021C90C01F00F07C1F307117F39A2EBC3
:104F6000C15501EB030B3846FFF7ADF86FF00301B5
:104F7000FFF77CF94FF07E51FEF7FCFE01460290F0
:104F80002846FEF749FF019028460299FEF7F2FEF7
:104F900000F5006A6FF30B0A009051460298FEF785
:104FA0003BFF2946FEF7E6FE02904FF07E50009947
:104FB000FEF76AFF014600900198FEF733FF00F507
:104FC00000656FF30B0528460299FEF72BFF029050
:104FD00051462846FEF726FF0199FEF720FF029969
:104FE000FEF71AFF0099FEF71DFF014601902846C3
:104FF000FEF7C0FE01460290FEF714FF8246D0493C
:10500000FEF710FFCF49FEF7B5FE5146FEF70AFF47
:10501000824600212846FFF729F900905146029860
:10502000FEF700FF054600210198FFF71FF929460A
:10503000FEF7A0FE824601460098FEF79BFE00F5B3
:1050400000656FF30B0529460098FEF7E5FE514613
:10505000FEF790FE8246BC492846FEF7E3FE00902C
:10506000BA495046FEF7DEFE8246B9492846FEF7A9
:10507000D9FE5146FEF77EFE824601460098FEF7B5
:1050800079FE00F500656FF30B0529460098FEF7E1
:10509000C3FE5146FEF76EFE8246AE48784450F895
:1050A000371000EBC700019147684FEA0B10FFF77C
:1050B0000AF8009039465046FEF75CFE2946FEF796
:1050C00059FE0199FEF756FE0099FEF753FE00F5D2
:1050D000006B6FF30B0B58460099FEF79DFE01998C
:1050E000FEF79AFE2946FEF797FE3946FEF794FE34
:1050F0005146FEF794FE06F5006782466FF30B07F4
:1051000039463046FEF788FE002100900846FFF73A
:10511000A2F900F00C0639465846FEF783FE054614
:1051200020F00040B0F18B4F0ADDB8EB400F07D301
:105130004FF08B4060F31E052F464FF0000A1FE032
:1051400038460099FEF716FE5146FEF76BFE0746FD
:1051500058460099FEF766FE3946FEF70BFE82467A
:1051600001462846FEF706FE00F500676FF30B07C1
:1051700039462846FEF750FE5146FEF7FBFD8246B3
:1051800031460C20FFF767F951463846FEF7F2FD2D
:10519000FFF73BF906460511FEF795FF3946FEF786
:1051A0003EFE5146FEF7E6FD07466B49FEF73AFE26
:1051B0006A49FEF7DFFD3946FEF734FE6849FEF71F
:1051C000D9FD3946FEF72EFE0146664806F00F0669
:1051D000784450F82600FEF725FE6349794451F8DB
:1051E0002610FEF7C7FD6149794451F82610FEF7F5
:1051F000C1FD05F17D01FC2908D22946FFF736F8EB
:1052000004B02146BDE8F04DFEF70CBE05F1BF012C
:10521000B1F5BF7F16D82946FFF728F82146FEF7DB
:1052200001FE0546B8EB450F1AD068000CD02846A1
:10523000FFF75AF9042808BFFFF77CF9284604B0A5
:10524000BDE8F08D002D0BDA0220FFF73DFAFFF7E5
:1052500071F90146204604B061F31E00BDE8F08DEF
:105260000220FFF731FAFFF760F90146204604B04B
:1052700061F31E00BDE8F08DB1F1804F3CD300BF5B
:1052800000F1FF41B1F1FE4F21D200BF20F00042FA
:10529000C5F3C75110467F290DDB9729BFF651AEE4
:1052A000C1F196014FF0010C0CFA01F1A1F1010CD2
:1052B0001CEA050F07D00120FFF706FA04B0BDE88D
:1052C000F04DFFF72EB9294218BF294C39E64100AD
:1052D0001CBF4FF08071B1EB400F09D91B21FEF7C5
:1052E000C5FF02466FF01A0310F0004FCED128E63A
:1052F000BCF1FE4F18D224E6B1F1007F0ED336F098
:10530000004105D006F0004141F0FC552E46B7E7BC
:10531000410018BFB8EB400F78D8B1E7B1F1807FFA
:1053200038BFA5F50006ABD320F000416FF0FF4C6D
:10533000104C01EB0C03A3422FD31DE0001080C0E2
:105340007EE24C3EABAAAA3E00B038423BAA3842AD
:10535000D49AB8BB58060000FC596337C9FF753AA8
:105360001872313D24060000D80500008C050000AD
:10537000000080BFFFFF3F0025F000439C44A44590
:105380000BD3B0F17E5F18BF5FEA450C3ED0B1F1A0
:10539000FF4F98BFB3F1FF4F05D904B03146BDE8C8
:1053A000F04DFFF7BCB8B0F1FF4F0FD0C5F3C751B8
:1053B0007F2909DB972911DAC1F19601012202FA4E
:1053C00001F14A1E2A4205D0002108E015F0004FE5
:1053D00055D128E0294218BF012100D1022110F542
:1053E000000F14D020B3B0F1004F27D010F1814F3F
:1053F0004ED04FF0FE41B1EB400F94BF0120002092
:10540000012101EBE571884239D10CE040E015F053
:10541000004F02D0012936D031E0012902BF3F48B8
:1054200004B0BDE8F08D4FF0FF4004B0BDE8F08D52
:1054300015F000400ED104B0BDE8F08DB5F1FF4F7E
:105440001DD015F5000F05D015F0004F14D009B18F
:10545000012907D00220FFF737F904B0BDE8F04D6D
:10546000FFF755B80220FFF72FF9FFF750F804B007
:1054700080F00040BDE8F08D09B1012903D004B0EF
:105480000020BDE8F08D04B04FF00040BDE8F08D85
:1054900004B04FF07E50BDE8F08D00BF4FF07E515C
:1054A000FEF7BAFC05466FF00101FEF7DFFE1C496E
:1054B000FEF7B5FC2946FEF7B5FC4FF07C51FEF730
:1054C000AEFC074629460846FEF7ACFC80F00040DB
:1054D0003946FEF7A7FC824612492846FEF7A2FC91
:1054E000074611495046FEF79DFC82460F49284663
:1054F000FEF798FC5146FEF73DFC0546014638464E
:10550000FEF738FC00F5006B6FF30B0B594638467D
:10551000FEF782FC2946FEF72DFCECE5000080FF3B
:10552000ABAAAA3E00B0B8413BAAB841D49A38BB56
:105530002DE9F8430446024652486946B0EB420F53
:1055400009D94FF0E640B0EB420F94BF00204FF076
:10555000FF30009030E04C4B22F00040834271D984
:105560004A492046FEF75EFCFEF7BBFE8046FEF78A
:1055700033FF00F00300009045494046FEF752FC1F
:10558000054644494046FEF74DFC06464249404622
:10559000FEF748FC074641494046FEF743FC2146DA
:1055A000FEF73DFC3946FEF737FC3146FEF734FC8A
:1055B0002946FEF731FC04462546009C002C45DBBD
:1055C000294614F0010F08461ED0FEF72BFC0546B5
:1055D0003349FEF727FC3349FEF7CCFB2946FEF79B
:1055E00021FC3149FEF7C6FB2946FEF71BFC4FF0B4
:1055F0007E51FEF7BFFB14F0020F08BFBDE8F88331
:1056000080F00040BDE8F883FEF70CFC0646274911
:10561000FEF708FC2649FEF702FC3146FEF702FCC5
:105620002449FEF7A7FB3146FEF7FCFB2946FEF7AF
:10563000F9FB2946FEF79EFB14F0020FE0D1BDE80E
:10564000F883FFE71046FEF77BFFB4E76800B0F190
:105650007F4F09D22846FEF747FF042808BFFEF710
:1056600069FF2846BDE8F88306D10120FFF72CF832
:10567000BDE8F843FEF755BF2846BDE8F843FEF7FE
:105680004BBF0000B61F927E490E494683F9223F68
:105690001A61342C0020A23300A0FD390000C93F5C
:1056A000B93AB2BACA9F2A3DDDFFFFBE336D4C390D
:1056B000DA82083CA0AA2ABE70B50546FEF7E2FDD4
:1056C000044620F00040C0F1FF40C00F08D025F094
:1056D0000040C0F1FF40C00F04BF0120FEF7F4FFFF
:1056E000204670BD716D63363330385F6765745F17
:1056F0006368697069640000000000000000000039
:105700000000B33FB2BE7D3A00002E40DFCF5138DB
:1057100000007E40BF51FABA00E0A44019DAC3BAD3
:1057200000E0C840C2ED8AB90040EB40CD1F2CBA62
:10573000001006412AFFFABA00C01541DFCFD13769
:1057400000D024419A97703A0050334189478E36F1
:1057500000404141E75B9D3800B04E41C00A98B916
:1057600000A05B41558F943A00306841DA92C0BA8C
:105770000040744162B3C63A0000803F00A0853FFC
:1057800000908B3F00C0913F0030983F00F09E3F5B
:1057900000F0A53F0050AD3F0000B53F0000BD3F09
:1057A0000060C53F0020CE3F0040D73F00C0E03F33
:1057B00000C0EA3F0020F53F000000007D36AC3914
:1057C0007D3C3839EBDCF438320A7E39124C26390C
:1057D0009B6AED39A4EE83397F661E39F6398A3922
:1057E0002B426539A48211395B991F39C3EECD393B
:1057F000DDE7C637A5A22F390000803FC3AA853F49
:10580000C2958B3FD3C3913FF037983F32F59E3F0F
:10581000D7FEA53F3F58AD3FF304B53FA408BD3FB9
:105820002A67C53F8C24CE3FFD44D73FDFCCE03F05
:10583000C7C0EA3F7D25F53F000000006E83F9A256
:105840002915444ED15727FCC0DD34F5999562DB0C
:105850004190433CAB6351FEBDD3CFC2C0B4BDF851
:10586000D0D0B4C5C1A6BCC65AD6E1D0A3D7BC2CF3
:10587000C7EBD7AAB6AFC2DEC5CC3930B6C82CD478
:10588000D9B4CECBAEC6BDD0FDD7AAC2DEC5CCD270
:10589000BBD6DCA1ADA1AD0A00000000BC580008D9
:1058A00000000020A0000000A84600085C59000885
:1058B000A0000020E8090000B84600080000000031
:1058C0000102030401020304060708090204060892
:1058D00000000000000000000000000000000000C8
:1058E00000000000000000000000000000000000B8
:1058F000000000000000FF80A0B0C0000000000019
:105900000000000000000000000000000000000097
:105910000000000000000000000000000000000087
:105920000000000000000000000000000000000077
:105930000000000000000000000000000000000067
:1059400000A24A040000000000000000010203045D
:0C5950000607080900000000000000002D
:0400000508000131BD
:00000001FF
